:020000040800F2
:10000000700F0020E9010008F5580008F7580008B3
:10001000FB580008FF5800080359000800000000C2
:100020000000000000000000000000000759000868
:1000300009590008000000000B5900080D5900087C
:10004000030200080302000803020008030200087C
:10005000030200080302000803020008030200086C
:10006000030200080302000803020008030200085C
:10007000030200080302000803020008030200084C
:10008000030200080302000803020008030200083C
:100090000302000803020008030200080F570008CB
:1000A000030200080302000803020008030200081C
:1000B0000302000803020008E71E0008030200080C
:1000C00003020008030200080302000803020008FC
:1000D000030200086D220008FF220008C523000863
:1000E00003020008030200080302000803020008DC
:1000F00003020008030200080302000803020008CC
:1001000003020008030200080302000803020008BB
:100110005D2400080302000803020008030200082F
:10012000030200080302000803020008030200089B
:1001300000F002F800F048F80AA090E8000C8244B1
:100140008344AAF10107DA4501D100F03DF8AFF28E
:10015000090EBAE80F0013F0010F18BFFB1A43F0A5
:100160000103184784750000A4750000103A24BFED
:1001700078C878C1FAD8520724BF30C830C144BF0C
:1001800004680C607047000000230024002500264E
:10019000103A28BF78C1FBD8520728BF30C148BFEA
:1001A0000B607047642905F0AB87752905F0A887B7
:1001B000782905F0E187732906F0DB81002070477C
:1001C0001FB51FBD10B510BD06F047FA1146FFF769
:1001D000F7FF05F0E1FA06F065FA03B4FFF7F2FF66
:1001E00003BC01F0C7FE00000948804709480047EA
:1001F000FEE7FEE7FEE7FEE7FEE7FEE7FEE7FEE7D7
:10020000FEE7FEE704480549054A064B7047000033
:10021000EF5900083101000870090020700F00201C
:10022000700B0020700B002031490143314A1160EE
:10023000704770B5002100230F22C47804B32D4C01
:10024000246804F4E064C4F5E064210AC1F1040305
:10025000CA40447804FA03F1847814402143090128
:10026000254C0678A155047804F01F050124AC4004
:1002700005786D11AD0005F1E025C5F8004109E0F4
:10028000047804F01F050124AC401C4D067876115B
:1002900045F8264070BD1A4A0A400243154B1B1F01
:1002A0001A60704739B1134A121D12680243114B8C
:1002B0001B1D1A6006E00F4A121D126882430D4B87
:1002C0001B1D1A607047042808D14FF0E02109690E
:1002D00041F004014FF0E022116107E04FF0E0210E
:1002E000096921F004014FF0E0221161704700001C
:1002F0000000FA050CED00E000E400E080E100E021
:1003000080FFFF1F002044490860091D0860091D87
:100310000860091D086041483F4914310860704772
:1003200000213D498279002A3AD00A4612680368C2
:100330009A430B461A600A1D126803689A430B1D04
:100340001A60027911440A6803681A430A60324A43
:100350000832126803689A432F4B08331A601A1D3B
:10036000126803689A432C4B0C331A604279102AA6
:100370000ED11A1F126803681A43274B08331A60FC
:100380001A1D126803681A43234B0C331A600DE0E0
:100390002149427911440A6803681A430A6005E05A
:1003A000027911440A6803689A430A607047002181
:1003B000016001710C214171002181717047164962
:1003C000103109680143144A103211607047014628
:1003D0000020114A143212680A400AB1012000E0DC
:1003E000002070470C491431086070470146002016
:1003F0000022094B1B6803EA0102074B14331B68F8
:100400000B4013B10AB1012000E0002070470249FF
:10041000143108607047000000040140FFFF0F0026
:1004200010B50446CC48844208D10121042000F0D4
:100430002DFB0021042000F029FB46E0C748844240
:1004400008D10121082000F021FB0021082000F044
:100450001DFB3AE0C248844208D10121102000F07F
:1004600015FB0021102000F011FB2EE0BD48844256
:1004700008D10121202000F009FB0021202000F0FC
:1004800005FB22E0B848844208D10121402000F059
:10049000FDFA0021402000F0F9FA16E0B34884424A
:1004A00008D10121802000F0F1FA0021802000F025
:1004B000EDFA0AE0AE48844207D10121801500F030
:1004C000E5FA0021A01500F0E1FA10BD10B50121F8
:1004D000084600F0DBFA0021012000F0D7FA10BD39
:1004E0002DE9F041024600250026002000230024CB
:1004F000002791F803C00CF00F0591F803C00CF031
:10050000100CBCF1000F03D091F802C04CEA0505B5
:1005100091F800C0BCF1000F31D0146800202BE02E
:100520004FF0010C0CFA00F3B1F800C00CEA03061E
:100530009E4220D183004FF00F0C0CFA03F7BC430E
:1005400005FA03FC4CEA040491F803C0BCF1280F3F
:1005500006D14FF0010C0CFA00FCC2F814C00AE0FE
:1005600091F803C0BCF1480F05D14FF0010C0CFA13
:1005700000FCC2F810C0401C0828D1D31460B1F8A8
:1005800000C0BCF1FF0F34DD546800202EE000F104
:10059000080C4FF0010808FA0CF3B1F800C00CEA9F
:1005A00003069E4221D183004FF00F0C0CFA03F793
:1005B000BC4305FA03FC4CEA040491F803C0BCF107
:1005C000280F05D100F1080C08FA0CF8C2F81480C5
:1005D00091F803C0BCF1480F07D100F1080C4FF0AF
:1005E000010808FA0CF8C2F81080401C0828CED385
:1005F0005460BDE8F0814FF6FF71018002218170E7
:100600000421C17070470246002093680B400BB173
:10061000012000E0002070470146886880B27047E2
:1006200002460020D3680B400BB1012000E00020FF
:1006300070470146C86880B27047016170474161E8
:1006400070470AB1016100E041617047C1607047C5
:100650004FF480320A4382618161826182698269DA
:10066000704702460020434B18684FF680731840CD
:1006700040EA021008433F4B186070473E49C8618A
:100680007047F0B50A46002300240021002500F041
:100690000046B6F1004F02D1364EF16901E0354E09
:1006A0007168C0F3034583B200F44016B6F5401FED
:1006B00008D121F070612F4E766826F070662D4FBC
:1006C0007E6012E000F48016B6F5801F06D1032686
:1006D00006FA05F4A14341F0706106E0460D3601CB
:1006E00003FA06F6B14341F0706122B1460D3601BE
:1006F00003FA06F6314300F00046B6F1004F02D18E
:100700001C4EF16101E01B4E7160F0BD30B500225E
:100710008B071C0F0F2303FA04F2164B08338C10BF
:1007200053F824309343134C08348D1044F825308B
:1007300023468C1053F824308C07240F00FA04F45D
:1007400023430C4C08348D1044F8253030BD0A4941
:10075000DC3108607047000000080140000C0140D7
:10076000001001400014014000180140001C01402D
:10077000002001400000014000002042DF480068E6
:1007800040F00100DD49086008464068DC49084047
:10079000DA49486008460068DA490840D7490860E5
:1007A0000846006820F4802008600846406820F46D
:1007B000FE0048604FF41F0088607047CF49096809
:1007C00021F48031CD4A11601146096821F480215D
:1007D0001160B0F5803F03D0B0F5802F0ED106E058
:1007E000C649096841F48031C44A116007E0C34931
:1007F000096841F4A021C14A116000E000BF00BFB8
:10080000704710B501460022002300204A11012A3A
:1008100002D1BA4C236806E0022A02D1B74C236AFF
:1008200001E0B64C636A01F01F02012494401C40B1
:100830000CB1012000E0002010BD38B50020009070
:100840000024002500BF3120FFF7DBFF054600989C
:10085000401C00900098B0F5A06F01D0002DF2D0A0
:100860003120FFF7CEFF08B1012400E0002420462C
:1008700038BD01460020A14A106820F0F80040EA87
:10088000C10010607047A049086070470246002010
:100890009A4B586820F47C1042EA01031843974BA6
:1008A0005860704798490866704701460020934A8F
:1008B000506820F003000843506070478F4840683C
:1008C00000F00C007047014600208C4A506820F070
:1008D000F00008435060704701460020874A506886
:1008E00020F4E06008435060704701460020834ACE
:1008F000506820F4605040EAC1005060704729B150
:100900007E4A527A02437D4B5A7204E07B4A527A05
:1009100082437A4B5A7270477B49D83108607047DE
:1009200001460020754A506820F44040084350605A
:1009300070470021714A20321170704A82F82010ED
:10094000012802D004280AD104E001216B4A203298
:10095000117005E00521694A2032117000E000BFE6
:1009600000BF70476949086070476449096A0143DC
:10097000624A11627047654944390860704730B572
:1009800000210022002400235C4D6D6805F00C015D
:1009900021B1042905D0082923D105E05C4D05606B
:1009A00022E05B4D05601FE0544D6D6805F4701248
:1009B000524D6D6805F48034022505EB92421CB956
:1009C000544D554305600BE04C4D6D6805F4003502
:1009D0001DB1504D5543056002E04D4D5543056036
:1009E00002E04B4D056000BF00BF444D6D6805F04F
:1009F000F0010909484D6B5C0568DD4045603F4DDD
:100A00006D6805F4E061090A434D6B5C4568DD40A3
:100A100085603A4D6D6805F46051C90A3E4D6B5CC6
:100A20004568DD40C560354D6D6805F44041890B72
:100A30003A4D6B5CC568B5FBF3F5056130BD29B176
:100A40002E4A526902432D4B5A6104E02B4A5269E7
:100A500082432A4B5A61704729B1284A926902435E
:100A6000264B9A6104E0254A92698243234B9A619E
:100A7000704729B1214AD2690243204BDA6104E070
:100A80001E4AD26982431D4BDA61704729B11B4A65
:100A9000D2680243194BDA6004E0184AD2688243F4
:100AA000164BDA60704729B1144A12690243134B9E
:100AB0001A6104E0114A12698243104B1A617047AF
:100AC00012494039086070470F49C86470470B49A4
:100AD000C87170470948406A40F080700749486211
:100AE000704701460020054A92680A400AB1012079
:100AF00000E00020704701498872704700100240F2
:100B00000000FFF8FFFFF6FE000042428004424270
:100B100000127A0000093D000000002010000020B3
:100B200010B50446FE48844208D10121C014FFF7E5
:100B3000ADFF0021E014FFF7A9FFC4E0B4F1804F3E
:100B400008D101210846FFF7AEFF00210120FFF781
:100B5000AAFFB8E0F348844208D101210220FFF740
:100B6000A2FF00210220FFF79EFFACE0EE48844286
:100B700008D101210420FFF796FF00210420FFF790
:100B800092FFA0E0E948844208D101210820FFF744
:100B90008AFF00210820FFF786FF94E0E4488442A2
:100BA00008D101211020FFF77EFF00211020FFF760
:100BB0007AFF88E0DF48844208D101212020FFF736
:100BC00072FF00212020FFF76EFF7CE0DA488442AC
:100BD00008D101214014FFF759FF00216014FFF7ED
:100BE00055FF70E0D548844209D10121C804FFF7C0
:100BF0004DFF00214FF40020FFF748FF63E0D0488D
:100C0000844209D101210805FFF740FF00214FF47C
:100C10008010FFF73BFF56E0CA48844209D101210A
:100C20004805FFF733FF00214FF40010FFF72EFFB8
:100C300049E0C548844208D101214020FFF733FF35
:100C400000214020FFF72FFF3DE0C048844208D13B
:100C500001218020FFF727FF00218020FFF723FFDD
:100C600031E0BB48844208D101218015FFF71BFF0A
:100C70000021A015FFF717FF25E0B648844209D1EF
:100C800001210804FFF702FF00214FF48030FFF735
:100C9000FDFE18E0B048844209D101214804FFF765
:100CA000F5FE00214FF40030FFF7F0FE0BE0AB48FB
:100CB000844208D101218804FFF7E8FE00214FF4A7
:100CC0008020FFF7E3FE10BD00220288944B98427B
:100CD0000ED0994B98420BD0B0F1804F08D0914B79
:100CE000984205D0904B984202D0904B984204D144
:100CF0004FF68F731A404B881A438D4B984207D09A
:100D00008C4B984204D04FF6FF431A40CB881A43CD
:100D100002808B8883850B880385814B98420BD09A
:100D2000854B984208D08B4B984205D08A4B98420D
:100D300002D08A4B984201D10B7A03860123838229
:100D4000704770B5002400220023058C4FF6FE7614
:100D500035400584028C8388048B4FF68F752C40B8
:100D6000B51E2C400D882C43751E2A400D892A4340
:100D70004D882A436A4DA8420BD06F4DA84208D037
:100D8000744DA84205D0744DA84202D0734DA842BC
:100D900013D14FF6F7752A404D892A434FF6FB755C
:100DA0002A408D882A434FF6FF652B404FF6FF55AA
:100DB0002B408D892B43CD892B4383800483CD88A1
:100DC0008586028470BD70B5002400220023058C46
:100DD0004FF6EF7635400584028C8388048B48F605
:100DE000FF752C404FF6FF452C400D884FF6FF76DF
:100DF00006EA05252C434FF6DF752A400D8906EAE1
:100E000005152A434D8806EA05152A43444DA84294
:100E100002D0494DA8421DD14FF67F752A404D8919
:100E20004FF6FF7606EA05152A434FF6BF752A40AE
:100E30008D8806EA05152A434FF6FF352B404FF201
:100E4000FF752B408D8906EA85052B43CD8906EA7F
:100E500085052B4383800483CD880587028470BD7C
:100E600070B5002400220023058C4FF6FF66354044
:100E70000584028C8388848B4FF68F752C404FF647
:100E8000FC752C400D882C434FF6FF552A400D89E8
:100E90004FF6FF7606EA05252A434D8806EA052522
:100EA0002A431F4DA84202D0234DA8421DD14FF224
:100EB000FF752A404D894FF6FF7606EA05252A433D
:100EC0004FF6FF352A408D8806EA05252A434EF65F
:100ED000FF752B404DF6FF752B408D8906EA0515F1
:100EE0002B43CD8906EA05152B4383808483CD8867
:100EF0008587028470BD70B5002200230024058C14
:100F00004EF6FF7635400584038C8488828B48F644
:100F1000FF752A404FF6FF452A400D8820E000006B
:100F2000002C01400004004000080040000C00407C
:100F3000001000400014004000340140004C01400B
:100F4000005001400054014000180040001C0040C7
:100F500000200040004001400044014000480140A2
:100F60004FF6FF7606EA05252A434DF6FF752B401E
:100F70000D8906EA05352B434D8806EA05352B43D6
:100F8000FA4DA84202D0FA4DA84208D14BF6FF759F
:100F90002C408D894FF6FF7606EA85152C43848018
:100FA0008283CD88A0F84050038470BD828B4FF2BD
:100FB000FF331A408283828B4FF6FF7303EA0123CB
:100FC0001A4382837047F0B50C4615460022002173
:100FD0000026078C4EF6FF7C07EA0C070784828BFD
:100FE000018C4FF6FF7707EA043640F6FF473A4098
:100FF0004FF6FF7707EA05273A434FF6FF7707EAF0
:1010000003373A43D94FB8420ED0D94FB8420BD02C
:10101000B0F1804F08D0D74FB84205D0D64FB84274
:1010200002D0D64FB84206D14DF6FF77394046F48C
:101030008057394305E047F6FF57394044F480575D
:10104000394382830184F0BD828B4FF6F3731A40DB
:101050008283828B0A4382837047F0B50C46154623
:10106000002200210026078C4FF6FF6C07EA0C07D0
:101070000784828B018C4FF6FF7707EA04264FF630
:101080000C773A404FF6FF7707EA03172F433A43AE
:10109000B64FB8420ED0B64FB8420BD0B0F1804F29
:1010A00008D0B44FB84205D0B34FB84202D0B34FC6
:1010B000B84206D14FF6FF57394046F4807739439E
:1010C00005E04FF2FF57394044F48077394382837B
:1010D0000184F0BD028B4FF2FF331A400283028B72
:1010E0004FF6FF7303EA01231A4302837047F0B5FA
:1010F0000C461546002200210026078C4FF6EF7C97
:1011000007EA0C070784028B018C4FF6FF7707EA8A
:10111000041640F6FF473A404FF6FF7707EA0337D9
:101120003A434FF6FF7707EA05273A438F4FB84215
:101130000ED08F4FB8420BD0B0F1804F08D08D4FFA
:10114000B84205D08C4FB84202D08C4FB84206D17D
:101150004FF6DF77394046F01007394305E04FF688
:101160005F77394044F01007394302830184F0BDB2
:10117000028B4FF6F3731A400283028B0A430283F9
:101180007047F0B50C46154600220021068C4FF63C
:10119000FE773E400684028B018C4FF60C7632407F
:1011A0007E1C06EA03162E433243704EB0420ED028
:1011B0006F4EB0420BD0B0F1804F08D06D4EB042B0
:1011C00005D06D4EB04202D06C4EB04206D14FF603
:1011D000FD76314044F00106314305E04FF6F576E7
:1011E000314044F00106314302830184F0BD70B503
:1011F00005460C465D4885420ED05D4885420BD0C1
:10120000B5F1804F08D05B48854205D05A488542E9
:1012100002D05A48854200D100E000BF208850B972
:101220002389A28861882846FFF7ABFFE18828461A
:10123000FFF79EFF25E0208804280AD12389A28891
:1012400061882846FFF753FFE1882846FFF742FFF1
:1012500017E0208808280AD12389A28861882846B7
:10126000FFF7FBFEE1882846FFF7EEFE09E0238941
:10127000A28861882846FFF7A6FEE1882846FFF786
:1012800095FE70BD2DE9F04105460C46002601276C
:10129000608808B9022600E00026A088012801D154
:1012A000022700E001272088A0B92389A28861884D
:1012B0002846FFF766FFE1882846FFF759FF238994
:1012C0003A4631462846FFF712FFE1882846FFF7E5
:1012D00001FF13E02389A28861882846FFF707FFF2
:1012E000E1882846FFF7F6FE23893A46314628462C
:1012F000FFF747FFE1882846FFF73AFFBDE8F08196
:101300000A884B881A438B881A43CB881A430B8967
:101310001A434B891A438B891A43A0F8442070471B
:101320004FF6FF71818000210180C18041800172F0
:1013300070470021018041808180C180018141810D
:101340008181C1817047002101804180012181801C
:101350000021C1800181704700210180418081808E
:10136000C18001814181818170470000002C0140D2
:10137000003401400004004000080040000C004020
:1013800021B1028842F00102028004E002884FF697
:10139000FE731A400280704731B1B0F8442042F425
:1013A0000042A0F8442005E0B0F84420C2F30E0249
:1013B000A0F8442070471AB183890B43838102E06F
:1013C00083898B43838170478182704741EA02039E
:1013D000A0F8483070471AB183890B43838102E03B
:1013E00083898B438381704701894FF6F8721140DE
:1013F000018170470A46002101894FF68F73194019
:1014000011430181704730B504460D4629462046F8
:10141000FFF7F0FF208940F00700208130BD2DE963
:10142000F04104460D4616461F46602D06D13B4648
:10143000012231462046FFF75AFE05E03B460122D5
:1014400031462046FFF79DFE29462046FFF7D2FF92
:10145000208940F007002081BDE8F08130B50C46BE
:1014600000210189C9B24FF6FF7505EA032515432E
:1014700025432943018130BD2DE9F04105460E4643
:1014800017469846002443463A4631462846FFF719
:10149000E5FF2C894FF6F870044044F007044FF63E
:1014A0008F70044044F070042C81BDE8F081F0B5E9
:1014B00004460D4616461F463B4632462946204600
:1014C000FFF7CCFF208940F480402081F0BD0185EA
:1014D000828270470A46002101884FF68F731940B7
:1014E000114301807047F0B50C4615461E46002199
:1014F000002200230189028B038C4FF6F8773940D4
:1015000021434FF6FC473A4040F201173A434FF669
:10151000DD773B404FF6FF7707EA06172F433B4343
:10152000018102830384F0BD0A460021018B4FF63E
:101530008F7319401143018370470A460021018BC4
:1015400048F6FF7319404FF6FF7303EA022319436D
:10155000018370470A460021818B4FF68F73194033
:101560001143818370470A460021818B48F6FF733F
:1015700019404FF6FF7303EA022319438183704732
:1015800021B1028842F08002028004E002884FF616
:101590007F731A400280704721B1828842F00402B2
:1015A000828004E082884FF6FB731A408280704785
:1015B00021B1828842F00802828004E082884FF6DE
:1015C000F7731A408280704721B1828842F001028D
:1015D000828004E082884FF6FE731A408280704752
:1015E0000A460021018B4FF6F7731940114301831E
:1015F00070470A460021018B4FF2FF7319404FF6E6
:10160000FF7303EA02231943018370470A4600214E
:10161000818B4FF6F77319401143818370470A4657
:101620000021818B4FF2FF7319404FF6FF7303EADD
:1016300002231943818370470A460021018B4FF62C
:10164000FB7319401143018370470A460021018B47
:101650004FF6FF3319404FF6FF7303EA0223194395
:10166000018370470A460021818B4FF6FB731940B6
:101670001143818370470A460021818B4FF6FF3367
:1016800019404FF6FF7303EA022319438183704721
:101690000A460021018B4FF67F73194011430183E5
:1016A00070470A460021018BC1F30E014FF6FF730C
:1016B00003EA02231943018370470A460021818B04
:1016C0004FF67F7319401143818370470A4600210A
:1016D000818BC1F30E014FF6FF7303EA0223194316
:1016E000818370470A460021018C4FF6FD73194033
:1016F0001143018470470A460021018C4FF6F773AD
:1017000019401143018470470A460021018C4FF6AD
:10171000DF7319404FF6FF7303EA02131943018484
:1017200070470A460021018C4FF67F7319404FF62F
:10173000FF7303EA02131943018470470A4600212C
:10174000018C4FF6FF5319404FF6FF7303EA022353
:101750001943018470470A460021018C4FF2FF7340
:1017600019404FF6FF7303EA0223194301847047BF
:101770000A460021018C4DF6FF7319404FF6FF73A6
:1017800003EA023319430184704730B50023012472
:101790008C40A3B2048C9C430484048C02FA01F5AF
:1017A000ADB22C43048430BD30B5002304248C40FA
:1017B000A3B2048C9C430484048C02FA01F5ADB2FC
:1017C0002C43048430BD70B5034600200024184625
:1017D000183001258D40ACB21D8CA5431D8409B184
:1017E000082909D100EB6100056825F07005056046
:1017F0000568154305600EE00D1FC5F34E0528442E
:10180000056825F4E045056005684FF6FF7606EAB1
:1018100002263543056070BD21B1028842F0020204
:10182000028004E002884FF6FD731A400280704780
:1018300021B1028842F00402028004E002884FF6DF
:10184000FB731A400280704721B1828842F0800207
:10185000828004E082884FF67F731A40828070474E
:1018600002884FF6F7731A40028002880A4302800A
:10187000704782884FF68F731A40828082880A43AD
:101880008280704702894FF6F8731A4002810289FC
:101890000A430281704702894FF67F731A40028122
:1018A00002890A43028170478184704781857047AD
:1018B000818670470187704781877047A0F8401084
:1018C000704702884FF6FF431A40028002880A439D
:1018D000028070470146888E70470146088F704726
:1018E0000146888F70470146B1F8400070470146B5
:1018F000888C70470146088D704702460020138A85
:101900000B400BB1012000E000207047CA43028267
:10191000704730B50246002000230024158A05EAEE
:101920000103958905EA010413B10CB1012000E01F
:10193000002030BDCA4302827047000010B5044643
:10194000FB48844209D101218803FFF79FF8002159
:101950004FF48040FFF79AF832E0F648844209D10C
:1019600001214804FFF79FF800214FF40030FFF7F2
:101970009AF825E0F048844209D101218804FFF754
:1019800092F800214FF48020FFF78DF818E0EB4823
:10199000844209D10121C804FFF785F800214FF4E2
:1019A0000020FFF780F80BE0E548844208D10121D0
:1019B0000805FFF778F800214FF48010FFF773F85F
:1019C00010BD2DE9F04786B005460E460024A2461C
:1019D00000BFA1460027B08900B100BF2F462C8A66
:1019E0004CF6FF700440F08804432C82AC894EF61C
:1019F000F3100440B08831890843718908430443D7
:101A0000AC81AC8A4FF6FF400440B0890443AC82FD
:101A100001A8FEF7B4FFC648874202D1DDF810A046
:101A200001E0DDF80CA0A88900F4004040B10AEB09
:101A3000CA0000EB0A1031684900B0FBF1F807E07A
:101A40000AEBCA0000EB0A1031688900B0FBF1F81C
:101A50006420B8FBF0F004012009642101FB108927
:101A6000A88900F4004040B1322000EBC900B0FB6F
:101A7000F1F000F00700044308E0322000EB091009
:101A80006421B0FBF1F000F00F0004432C8106B09C
:101A9000BDE8F0874FF41651016000218180C180BC
:101AA00001810C21418100218181704710B50246DE
:101AB0000020108A4FF2FF0318400B884C88234304
:101AC0008C882343CC8823431843108210BD002107
:101AD000018041808180C180704721B1828942F4B8
:101AE0000052828104E082894DF6FF731A408281A0
:101AF0007047F0B50346002400260025002040F67C
:101B00006A17B94200D100BF1846C1F3421401F070
:101B10001F06012707FA06F5012C01D10C3004E05D
:101B2000022C01D1103000E014301AB107682F43A5
:101B3000076002E00768AF430760F0BD1AB1838A0F
:101B40000B43838202E0838A8B4383827047028A3D
:101B50004FF6F0731A400282028A0A4302827047EB
:101B600082894FF2FF731A40828182890A438281FF
:101B7000704721B1828942F00202828104E08289A9
:101B80004FF6FD731A4082817047028A4FF6DF7369
:101B90001A400282028A0A430282704721B1028AF5
:101BA00042F48042028204E0028A4BF6FF731A403C
:101BB00002827047C1F3080282807047014688881C
:101BC000C0F308007047818941F0010181817047AD
:101BD000028BD2B20283028B42EA01220283704757
:101BE000028B02F47F420283028B0A430283704716
:101BF00021B1828A42F02002828204E0828A4FF67A
:101C0000DF731A408282704721B1828A42F010024B
:101C1000828204E0828A4FF6EF731A408282704714
:101C200021B1828A42F00802828204E0828A4FF661
:101C3000F7731A408282704721B1828942F40042D0
:101C4000828103E08289C2F30E028281704721B152
:101C5000828A42F40062828204E0828A4FF2FF7339
:101C60001A4082827047828A4FF6FB731A40828242
:101C7000828A0A438282704721B1828A42F002023C
:101C8000828204E0828A4FF6FD731A408282704796
:101C900002460020B1F5007F00D100BF13880B4041
:101CA0000BB1012000E00020704701F40072B2F592
:101CB000007F00D100BFCA430280704770B5024662
:101CC000002400230025002040F66A16B14200D10E
:101CD00000BFC1F3421501F01F03012606FA03F30A
:101CE000012D02D19689334006E0022D02D1168AD9
:101CF000334001E0968A33400C12012606FA04F4C0
:101D00001688344013B10CB1012000E0002070BDF2
:101D100010B50022002340F66A14A14200D100BF92
:101D20000A1201249440A3B2DC43048010BD0000D9
:101D3000003801400044004000480040004C004092
:101D40000050004010B504466FF00400FEF7BBFAE7
:101D5000E11704EB5171C1F3C701294A1170104614
:101D6000007800EB4001C1EBC0104FF6FF7101EAB3
:101D7000C0002449088010BD0146224A12884A4307
:101D80004FF0E0235A6100229A6101221A6100BFDC
:101D90004FF0E022106900F001021AB100F4803225
:101DA000002AF5D000224FF0E0231A619A617047B3
:101DB0000146134A12784A434FF0E0235A61002249
:101DC0009A6101221A6100BF4FF0E022106900F011
:101DD00001021AB100F48032002AF5D000224FF03F
:101DE000E0231A619A61704710B5044604E0641E4E
:101DF0004FF47A70FFF7C0FF002CF8D110BD00003F
:101E0000140000201600002070B502460C46FF2585
:101E1000FF2309E012F8010B80EA03011748405C38
:101E200080EA05031648455C2000A4F10106B4B21F
:101E3000F0D143EA052070BD30BF704772B67047DD
:101E400062B6704710B502460B460020002103E041
:101E5000545C60404C1CE1B29942F9DB10BD10B5F6
:101E600002460B460020002104E0545C0444E0B22A
:101E70004C1CE1B29942F8DB10BD0000FE6B00087B
:101E8000FE6C00081FB501210420FEF7F2FD64205E
:101E9000ADF8080041F61F40ADF804000020ADF891
:101EA0000A00ADF8060001A92F48FEF70DFF012238
:101EB00011462D48FFF77FFA1E208DF80000022002
:101EC0008DF8010000208DF8020001208DF803003C
:101ED0006846FEF7AEF901212348FFF751FA0020CA
:101EE000224908601FBD10B501211F48FFF711FDF1
:101EF00040B101211C48FFF71DFD1C480068401C33
:101F00001A49086010BD10B5184B1B680B44184CDB
:101F100044F83030234603EBC0035A6010BD002163
:101F2000134A42F83010704710B5002419E01048E9
:101F300050F8340098B10E4850F834000B49096845
:101F400088420CD200200A4941F83400084600EBD0
:101F5000C400406818B101EBC40148688047601CA8
:101F6000C4B2142CE3DB10BD0008004018000020B0
:101F70009C000020014600BF704700BFF64A12884F
:101F800002F04002002AF9D0C2B2F34B1B1D1A80A6
:101F9000704710B586B0044601211120FEF75CFDA4
:101FA0000121C804FEF765FDEC48FFF7C7FC4FF4BC
:101FB0008060ADF8100003208DF8120018208DF815
:101FC000130004A9E648FEF78BFA4FF40060ADF861
:101FD000100004208DF8130004A9E148FEF780FAF0
:101FE00034208DF8140001208DF8150002208DF8A2
:101FF000160001208DF8170005A8FEF71AF90094C5
:102000000020ADF80400ADF80600ADF80800ADF80A
:102010000C000C20ADF80A006946D048FFF7D1FC4F
:10202000012240F22551CD48FFF763FD0121CB4845
:10203000FFF753FD0020CB49088006B010BD10B556
:1020400086B0044601210820FEF706FD0121880420
:10205000FEF70FFDC448FFF771FC4FF48060ADF848
:10206000100003208DF8120018208DF8130004A929
:10207000BE48FEF735FA4FF40060ADF810000420BA
:102080008DF8130004A9B948FEF72AFA009400203D
:10209000ADF80400ADF80600ADF80800ADF80C008E
:1020A0000C20ADF80A006946AF48FFF78AFC012111
:1020B000AD48FFF712FD012240F22551AA48FFF773
:1020C00018FD27208DF8140001208DF8150002203E
:1020D0008DF8160001208DF8170005A8FEF7A9F865
:1020E0000020A349088006B010BD10B586B0044694
:1020F0000020A049088001214804FEF7BAFC012114
:102100000420FEF7A9FC0420ADF8140003208DF88C
:10211000160018208DF8170005A99748FEF7E0F97A
:102120000820ADF8140004208DF8170005A9924886
:10213000FEF7D6F901214804FEF7B5FC00214FF463
:102140000030FEF7B0FC26208DF8000001208DF84D
:10215000010003208DF8020001208DF8030068467D
:10216000FEF767F801940020ADF80800ADF80A000A
:10217000ADF80C00ADF810000C20ADF80E0001A970
:102180007E48FFF71EFC012240F225517B48FFF7F5
:10219000B0FC01217948FFF7A0FC06B010BD10B5D6
:1021A00086B00446002076490880012144F20400EC
:1021B000FEF752FC4FF40070ADF8140003208DF8C8
:1021C000160018208DF8170005A96B48FEF788F94E
:1021D0004FF48060ADF8140004208DF8170005A9B5
:1021E0006548FEF77DF925208DF8000001208DF867
:1021F00001008DF802008DF803006846FEF719F81B
:1022000001940020ADF80800ADF80A00ADF80C000C
:10221000ADF810000C20ADF80E0001A94E48FFF7F4
:10222000D0FB012240F225514B48FFF762FC01210F
:102230004948FFF752FC06B010BD10B54FF4E1302D
:10224000FFF7ADFF4FF4E130FFF74FFF4FF4E13000
:10225000FFF7F5FE4FF41650FFF79BFE10BD484800
:10226000008840F4004046490880704710B540F2AD
:1022700025513948FFF722FD20B33748FFF79EFC70
:10228000C4B23F48008800F40040D8B93C480088F8
:1022900028B9AFF2350203210120FFF734FE384898
:1022A00000883F2808DA364801880088401C344AF4
:1022B00010803448445405E03148008840F4004020
:1022C0002F49088010BD70B505460E4600240CE06D
:1022D00000BF40212048FFF7DBFC0028F9D0295D32
:1022E0001D48FFF767FC601CC4B2B442F0DB70BD50
:1022F0002048008840F400401E490880704710B50F
:1023000040F225511D48FFF7D9FC20B31B48FFF7C9
:1023100055FCC4B21748008800F40040D8B91548ED
:10232000008828B9AFF2370203210220FFF7EBFD46
:10233000104800883F2808DA0E4801880088401CB1
:102340000C4A10801048445405E00A48008840F4C4
:1023500000400849088010BD00380140004C004092
:10236000001001402C00002000480040000C0140FB
:102370002800002024000020000801400044004004
:10238000200000203C0100207C01002070B50546A3
:102390000E4600240CE000BF40216E48FFF778FC99
:1023A0000028F9D0295D6B48FFF704FC601CC4B21B
:1023B000B442F0DB70BD6848008840F400406649D4
:1023C0000880704710B540F225516448FFF776FC4D
:1023D00038B36248FFF7F2FBC4B25F48008800F4EC
:1023E0000040F0B95C48008828B9AFF235020321FB
:1023F0000846FFF788FD584800883F2808DA564805
:1024000001880088401C544A10805548445408E014
:102410005148008840F400404F4908800320FFF7EE
:102420007EFD10BD70B505460E4600240CE000BFD1
:1024300040214A48FFF72CFC0028F9D0295D474885
:10244000FFF7B8FB601CC4B2B442F0DB70BD454876
:10245000008840F4004043490880704710B540F2BE
:1024600025514148FFF72AFC20B33F48FFF7A6FB60
:10247000C4B23C48008800F40040D8B9394800880C
:1024800028B9AFF2350203210420FFF73CFD35489F
:1024900000883F2808DA334801880088401C314A08
:1024A00010803248445405E02E48008840F4004033
:1024B0002C49088010BD70B505460E4600240CE07E
:1024C00000BF40212848FFF7E3FB0028F9D0295D31
:1024D0002548FFF76FFB601CC4B2B442F0DB70BD4F
:1024E0002DE9F05F05464FF0240800211E48FFF754
:1024F000F4FA280104F024FA81461D4908FB01F092
:1025000004F01EFA8246494604F038F90646304681
:1025100004F0F6F984B2204604F012FA83463146FC
:1025200004F0EEFA82464FF0834104F01DFA814632
:1025300004F0E6F907464FF6FF7000EA0414E019CC
:1025400009490831088001210748FFF7C6FABDE8AC
:10255000F09F000000440040280000200048004098
:10256000BC0100202C000020004C0040FC01002099
:1025700040420F0008B501212020FEF76DFAC0206F
:10258000ADF8000010208DF8030003208DF8020044
:1025900069461348FDF7A4FFC0211148FEF74FF824
:1025A00008BD10B5C0210E48FEF749F810BD10B5A2
:1025B00080210B48FEF741F84FF49670FFF7DCFBE3
:1025C000FFF7EFFF10BD10B540210548FEF735F8C5
:1025D0004FF49670FFF7D0FBFFF7E3FF10BD00004C
:1025E000001401401FB501214120FEF735FA4020BB
:1025F000ADF80C0048208DF80F0003208DF80E0078
:1026000003A91548FDF76CFF40211348FEF715F8A4
:102610004020FDF7FCFE06210420FEF777F840205D
:10262000019000208DF808000C208DF80900012091
:102630008DF80A0001A8FDF773FE17208DF8000041
:1026400002208DF8010001208DF802008DF80300B2
:102650006846FDF7EEFD1FBD0018014008B50121D9
:102660000820FEF7F9F90120ADF8000010208DF8E0
:10267000030003208DF8020069462348FDF730FF70
:1026800001212148FDF7D9FF01211020FEF7E4F9CF
:102690002020ADF8000010208DF8030003208DF8F5
:1026A000020069461948FDF71BFF20211748FDF776
:1026B000C4FF08BD10B501211348FDF7C0FF10BDD0
:1026C00010B501211048FDF7B8FF10BD10B520214D
:1026D0000E48FDF7B4FF10BD10B520210B48FDF7E3
:1026E000ACFF10BD10B501210748FDF78CFF10B9F4
:1026F000FFF7E6FF01E0FFF7DDFFAFF2170264210D
:102700000820FFF700FC10BD000C01400010014044
:1027100008B501210820FEF79FF9C020ADF80000A0
:1027200010208DF8030003208DF802006946E3486D
:10273000FDF7D6FEC021E148FDF77FFF08BD10B5CB
:10274000DE48006820F07040DC49086008460068F8
:1027500040F0405008600120D9490860D949C1F8CB
:1027600098010A20FFF724FB0020D54908600A20C1
:10277000FFF71EFB0020D349C1F8980110BD10B52A
:10278000CE48006820F07040CC49086008460068D8
:1027900040F0405008600020C949091F0860C9493D
:1027A000C1F89C010A20FFF703FB0120C449091F5F
:1027B0000860C449C1F89C010A20FFF7F9FA10BD6E
:1027C00010B50024BD48006820F07040BB49086087
:1027D0000846006840F0004008600120B8490860E1
:1027E0000A20FFF7E5FA0120B649C1F898010A204E
:1027F000FFF7DEFA07E0601CC4B2FA2C03DDFFF736
:10280000BEFF012010BDAE48803800680028F2D11C
:10281000AB49091F086000BFF4E710B50020A849C4
:10282000091F0860A548006820F07040A3490860AF
:102830000846006840F0405008600020A149C1F8F7
:102840009C010A20FFF7B4FA01209D49091F086086
:102850000A20FFF7ADFA00209A49C1F8980110BD8F
:1028600010B500209649091F08609448006820F0C0
:102870007040924908600846006840F04050086087
:1028800001209049C1F89C010A20FFF791FA01202C
:102890008B49091F08600A20FFF78AFA002089493E
:1028A000C1F8980110BD70B504468448006820F056
:1028B0007040824908600846006840F04050086057
:1028C00000207F49091F086000251DE0E00918B1BC
:1028D00001207B49086002E0002079490860600619
:1028E000040E0A20FFF764FA01207549091F0860E9
:1028F0000A20FFF75DFA00207249C1F898010A200A
:10290000FFF756FA681CC5B2082DDFDB70BD70B545
:10291000054600246948006820F070406749086057
:102920000846006840F000400860002617E00020DC
:102930006349091F08600A20FFF73AFA012061493C
:10294000C1F898016006040E5D488038006808B13F
:10295000601CC4B20A20FFF72BFA701CC6B2082E06
:10296000E5DB15B9FFF77CFF01E0FFF756FF5348A1
:10297000006820F07040514908600846006840F047
:1029800040500860204670BD10B5FFF7C1FE10BD75
:1029900070B504460026FFF7D2FEA020FFF783FFA4
:1029A000FFF70EFF08B1002070BD2546E11704EBCC
:1029B0001161C1F30720FFF776FFFFF701FF08B1B0
:1029C0000020F1E72546E11704EB11610912A4EBA1
:1029D0000121C8B2FFF767FFFFF7F2FE08B1002040
:1029E000E2E7FFF7ACFEA120FFF75DFFFFF7E8FE8F
:1029F00008B10020D8E70020FFF789FF0646FFF75F
:102A0000BEFE3046D0E770B504460E46FFF797FE8F
:102A1000A020FFF748FFFFF7D3FE00B170BD2012E2
:102A2000FFF741FFFFF7CCFE00B1F7E72546E117BE
:102A300004EB11610912A4EB0121C8B2FFF733FFC7
:102A4000FFF7BEFE00B1E9E73046FFF72CFFFFF7C6
:102A5000B7FE00B1E2E7FFF792FE0A20FFF78CF91C
:102A600000BFDBE72DE9F04105460E46174600247E
:102A700009E0E20026FA02F2D1B22A1990B2FFF779
:102A8000C2FF601CC4B2BC42F3DBBDE8F0812DE99B
:102A9000F04107460C460026002509E036023919A8
:102AA000491B491E88B2FFF773FF0644681CC5B274
:102AB000A542F3DB3046BDE8F0810000000C014088
:102AC0009C8121420080214210B5FD48007820B34E
:102AD0000D21FB480278401C81540A22401E0078D8
:102AE000401CF749491C0A540D22481E0078801CDE
:102AF0000A540A22481E0078C01C0A54481E007856
:102B0000001DC1B2EE48401CEE4A126890470020FA
:102B1000EB4908700820EC49087010BD10B505227B
:102B20003221EAA000F05AF80120E749087010BDF0
:102B300010B54FF40041E648FDF781FD0A20FFF78C
:102B40001BF94FF40041E248FDF777FD10BD10B5C9
:102B5000FFF7EEFF0A20FFF747F9FFF7DFFF10BD91
:102B600010B5DC4ADC49DDA003F080FAD94890F8C2
:102B7000680080B9D74A40F2BF11DDA003F076FAB1
:102B80000820FFF7CCF9AFF2390241F270710E2044
:102B9000FFF7B9F910BDCF4AE0A1E24803F072FA9D
:102BA000E04803F0D3FBC4B22146DE48C54A1268B0
:102BB0009047C848AFF25702416E0520FFF7A3F9CE
:102BC000C44890F86800FF2806D0C24890F8680012
:102BD000401EC04981F8680000BFDBE72DE9F041E5
:102BE00004460D4616462246CF49D0A003F03EFAD1
:102BF0002146B84803F086FBB648456680F8686011
:102C00000246C6A1C74803F03DFAC64803F09EFB42
:102C1000C7B23946C348AB4A12689047AD48AFF2D5
:102C2000BF02416E0520FFF76EF9BDE8F08110B5D7
:102C3000C2A1BC4803F026FA05224FF4FA61B94854
:102C4000FFF7CCFF0620A049087010BD10B5BEA14B
:102C5000B44803F017FA05224FF4FA61B148FFF7C0
:102C6000BDFF07209849087010BD10B5BA48036829
:102C7000BA48BBA10268AB4803F004FA05224FF43E
:102C8000FA61A848FFF7AAFF05208F49087010BD18
:102C900010B5BA480368BA48BAA10268A14803F05F
:102CA000F1F905224FF47A719E48FFF797FF04204F
:102CB0008549087010BD10B501223221B6A0FFF77A
:102CC0008DFF03208049087010BD10B5012232210C
:102CD000B4A0FFF783FF02207B49087010BD10B538
:102CE000B2A1904803F0CEF98E4803F02FFBC4B296
:102CF00021468C48734A126890470220FFF774F807
:102D000010BD10B57048007808282BD16C480078A9
:102D100040BB0A206A490870FF204870A548006837
:102D2000017867488170A348006841786448C170A1
:102D3000A04800688178624801719E480068C178A7
:102D40005F484171002181710221C171FE21017230
:102D5000002141720921401CFFF781F8584988720F
:102D6000FFF7B2FEAFF2650240F6B8310620FFF77A
:102D7000CAF810BD10B5904990A003F077F905206E
:102D8000FFF7CDF800204E49087008204E49087022
:102D90008848006830B1AFF295024FF47A7106208E
:102DA000FFF7B1F810BD70B500248948007800B96C
:102DB00070BD874A521C874987A003F057F98AA142
:102DC0008348401C03F060FA0446B4B1814988A0EE
:102DD00003F04CF90520FFF7A2F88A480078401C60
:102DE00088490870084600780A2800DDB0E1012013
:102DF000FEF7FAFFFFF739FFAAE183A17448401CF0
:102E000003F042FA0446DCB1724984A003F02EF9C3
:102E10000520FFF784F87B480078401C794908704A
:102E2000084600780A2800DD92E10120FEF7DCFF69
:102E3000FFF71BFF73480078401C7249087087E158
:102E40002148007808280FD16148007A0930C5B2BE
:102E50002A46604977A003F009F929465C48401CDE
:102E6000794A1268904773E117480078062810D114
:102E700076A15748401C03F007FA044644B155496F
:102E800073A003F0F3F80520FFF749F8FFF772FF8E
:102E90005EE10D480078012810D172A14C48401C19
:102EA00003F0F2F9044644B14A496FA003F0DEF89A
:102EB0000520FFF734F8FFF708FF49E1DEE00000E6
:102EC0000C03002048000020300000204154000086
:102ED00000180140A00200201C6E00085B25735DF5
:102EE0002573206F76657274696D650D0A000000A8
:102EF00046494C453A2048414C5C574946495C7725
:102F00006966692E632C204C494E453A2025643A67
:102F10002573204552524F520D0A000025730D0AA9
:102F2000000000003C020020396E00085B25735D44
:102F3000636D643D25730D0A0000000041542B436E
:102F4000495053454E44000041542B4349504D4F86
:102F500044453D3100000000400000203C000020BE
:102F600041542B43495053544152543D22544350F1
:102F7000222C222573222C2573000000380000200B
:102F80003400002041542B43574A41503D222573C1
:102F9000222C22257322000041542B43574D4F44CD
:102FA000453D3100415445300000000041542B5252
:102FB0005354000044000020FE6D00085B25735D43
:102FC0005749464920696E697420656E640D0A0090
:102FD000A00400200B6E00085B25735D7265632002
:102FE0003D2025730D0A0000434C4F53454400001B
:102FF0005B25735D72656320434C4F5345440D0A56
:1030000000000000310000206C696E6B20697320A5
:103010006E6F742076616C69640000005B25735DDF
:10302000726563206C696E6B206572726F720D0A37
:10303000000000005B25735D7374726C656E203D4B
:103040002025640D0A0000004C0000203E00000016
:103050005B25735D504153535448524F5547480DBB
:103060000A0000004F4B00005B25735D574946493D
:103070005F434D445F41540D0A00000093480078BF
:10308000022810D1AFF22401914803F0FDF8044664
:1030900044B1904990A002F0E9FF0520FEF73FFF00
:1030A000FFF709FE54E089480078032810D1AFF2F9
:1030B0004C01874803F0E8F8044644B185498BA0E9
:1030C00002F0D4FF0520FEF72AFFFFF7BFFD3FE027
:1030D0007E480078052810D1AFF278017C4803F0D3
:1030E000D3F8044644B17B4986A002F0BFFF052017
:1030F000FEF715FFFFF79BFD2AE0744800780728CC
:1031000010D1AFF2A001724803F0BEF8044644B1FA
:10311000704982A002F0AAFF0520FEF700FFFFF72A
:10312000B7FD15E069480078042810D1AFF2CC0152
:10313000674803F0A9F8044644B166497DA002F04F
:1031400095FF0520FEF7EBFEFFF78FFD00E000BFC7
:103150007E4800780A2814DD7C4802785D497CA00E
:1031600002F084FF00205949087078490870052052
:10317000FEF7D5FEAFF2296241F270710E20FEF724
:10318000C2FE00205249491E08706421504803F0D5
:1031900041F900BF0CE610B54C480078082826D14C
:1031A0007248007818BB00241FE065206043704916
:1031B000085CC0B165206043085C6C4908706520FC
:1031C00060436B4B1A5C652060431844411C6748A0
:1031D000401C03F0DAF8FFF777FC0021652060431C
:1031E000634A115410BD601CC4B2032CDDDB00BF68
:1031F000F8E72DE9F84F04460D4616461F46DDE96F
:103200000B9ADDF828805B495BA002F02FFF0121BB
:103210004020FDF721FC4FF40040ADF800001020E5
:103220008DF8030001208DF8020069465848FDF72B
:1032300057F94FF400415648FDF7FFF9554804602F
:103240005548056055480660554807605548C0F820
:1032500000805548C0F800905448C0F800A0FFF71F
:103260003EFDFFF75BFCBDE8F88F70B504460D46E8
:103270001748401E04706421401C03F0CBF822461E
:103280002946134803F081F870BD70B506460D4617
:10329000002413E0652060433549085C60B965206F
:1032A00060430D5465216143314A1144481C2A464C
:1032B000314603F06AF870BD601CC4B2032CE9DB30
:1032C0003B493CA002F0D2FE00BFF4E730000020F2
:1032D000A10400200B6E00085B25735D5749464929
:1032E0005F434D445F4154450D0A00005B25735D0B
:1032F000574946495F434D445F43574D4F44450D41
:103300000A0000005B25735D574946495F434D4401
:103310005F43495053544152540D0A005B25735D7D
:10332000574946495F434D445F4349504D4F4445DB
:103330000D0A00005B25735D574946495F434D44C4
:103340005F43574A41500D0A000000003100002041
:103350005B25735D576966695F4572726F725F4E78
:10336000756D3A2025640D0A000000000C03002052
:1033700071030020466E00085B25735D574946497E
:1033800020696E69742073746172740D0A00000004
:103390000018014034000020380000203C000020CC
:1033A0004000002044000020480000204C00002085
:1033B000546E00085B25735D57494649206275735A
:1033C000790D0A0010B52448008800F4004090B13F
:1033D000002021490988C1F30E01204A50541E499A
:1033E0000878114600F04AF900201B490880402166
:1033F0001A4803F00FF81A48008800F4004090B112
:10340000002017490988C1F30E01164A5054144987
:1034100008781146FFF729FF002011490880402154
:10342000104802F0F7FF1048008800F4004090B107
:1034300000200D490988C1F30E010C4A50540A4975
:103440000878114600F0F4F900200749088040216F
:10345000064802F0DFFF10BD240000207C010020A0
:1034600028000020BC0100202C000020FC010020CE
:1034700010B59348007800B910BD914A521C91498B
:1034800091A002F0F3FD8E480178401C924A126828
:10349000904700208A49087064218948401C02F046
:1034A000B9FF00BFE8E710B58C498DA002F0DEFD42
:1034B000914800688047AFF211024FF4FA71092079
:1034C000FEF721FD10BD10B508218C48FDF7B7F8B7
:1034D0000A20FEF751FC08218848FDF7AEF810BD20
:1034E00070B50124864987A002F0C0FD8A48028891
:1034F0008AA18D4802F0C6FD8B4802F027FFC5B2B5
:1035000029468948894A126890470120FEF76CFCD9
:10351000874800788440224686A1834802F0B2FDA5
:10352000814802F013FFC5B229467F487F4A1268DE
:1035300090470120FEF758FC81A17B4802F0A2FDD4
:10354000794802F003FFC5B229467748774A1268E6
:1035500090470120FEF748FC70BDF8B504460D46C3
:1035600016461F4601211020FDF776FA0820ADF817
:10357000000010208DF8030003208DF8020069463A
:103580005E48FCF7ADFF08215C48FDF756F8684837
:10359000047061480580654806604F480760002058
:1035A00047490870FFF79CFFF8BD70B505460C460B
:1035B0001646AA205C4908700020487008468570AD
:1035C0005520C870224631465748001D02F0DDFEE6
:1035D000201DC1B25448554A1268904770BD10B5BD
:1035E0005A495BA002F042FD0920FEF798FC0A2030
:1035F000FEF795FCFFF774FF10BD10B55C495DA0A8
:1036000002F034FD4FF400624AA1474802F03AFD4F
:10361000454802F09BFEC4B221464348434A126823
:1036200090470120FEF7E0FB59A13F4802F02AFD38
:103630003D4802F08BFEC4B221463B483B4A12682B
:1036400090470120FEF7D0FB3DA1374802F01AFD5C
:10365000354802F07BFEC4B221463348334A126833
:1036600090470A20FEF7C0FBFFF71DFFAFF2910263
:1036700040F6B8310A20FEF746FC10BD70B504468E
:103680000D460F4804706421401C02F0C3FE224620
:1036900029460B48401C02F078FE70BD10B5044668
:1036A00015480460FFF7A9FF10BD1B49088070474B
:1036B0001F490870704710B5FFF712FF10BD0000DA
:1036C00069050020666E00085B25735D72656320E6
:1036D0003D2025730D0A00005C000020796E000873
:1036E0005B25735D52435520526164696F204164CC
:1036F00064720D0A00000000580000200010014014
:103700008E6E00085B25735D7A6967626565204986
:103710006E69740D0A0000005600002050414E49A9
:103720004420256400000000050500205000002012
:10373000540000204348414E4E454C20256C7500F6
:1037400050575F524553455420310000BA6E00086F
:103750005B25735D524355205A6967626565204E4B
:10376000657474696E6720456E640D0A0000000080
:10377000A16E00085B25735D5A6967626565204E1E
:10378000657474696E672073746172740D0A000049
:1037900050414E494420310010B53148007800B9FD
:1037A00010BD2F4A521C2F492FA002F05FFC0020B1
:1037B0002B49087064212A48401C02F02BFE00BFF0
:1037C000EEE738B505460C4601212020FDF744F907
:1037D0000120ADF8000010208DF8030003208DF8C3
:1037E000020069462448FCF77BFE01212248FCF7D1
:1037F00026FF22480560224804600020184908700E
:1038000038BD70B504460D4601211B48FCF715FF75
:103810003220FEF7B1FA21462846184A126890472E
:103820003220FEF7A9FA01211348FCF708FF70BD0A
:1038300070B504460D460A4804706421401C02F02D
:10384000E9FD224629460648401C02F09EFD70BD57
:1038500010B5044620460A490968884710BD000093
:10386000CE050020D16E00085B25735D7265632074
:103870003D2025730D0A0000001401406000002067
:103880006400002010B5B348007800B910BDB148FD
:10389000C2885121B0A002F0E9FB0720AD4981F8B0
:1038A000D20000F0D7FB0020AA490870BA4908707E
:1038B00000BFEBE710B5A748007800B910BDA548D8
:1038C00090F8D30001281CD1A248D0F8DC00A0B1A8
:1038D000A049D1F8DC0080479E48D0F8D80040B11C
:1038E0009C48AFF25F02D0F8D8101020FEF70BFB17
:1038F00003E0002097490870E0E70020954981F82F
:10390000D300944890F8D40001280CD19148D0F805
:10391000E00018B18F49D1F8E000804700208D49C0
:10392000C1F8E000087000BFC8E770B504460E4655
:103930008848007838B1962198A002F097FB20467D
:1039400000F0EAFB70BD9448007860B1207892499D
:103950000978884207D19F219DA002F087FB20466D
:1039600000F0F3FBEEE701207A49087020784870F8
:103970000846A5490968C0F80210A079617900EBF2
:1039800001207449C8800020087264217148093000
:1039900002F040FD00206F4981F8D20081F8D2008A
:1039A00081F8D30081F8D400C1F8D800C1F8DC0058
:1039B000C1F8E000402E0EDD3246B82193A002F09F
:1039C00055FB0420634981F8D20000F043FB00203E
:1039D00060490870B6E70422611C5E48801C02F052
:1039E00065FC68B1C62199A002F040FB0520594949
:1039F00081F8D20000F02EFB002056490870A1E7A4
:103A0000E07932280EDDE279D4219EA002F02EFB6F
:103A10000520504981F8D20000F01CFB00204D49E0
:103A200008708FE7701EC1B22046FEF718FA711EAB
:103A3000615C88420DD0E221A1A002F017FB0220B8
:103A4000444981F8D20000F005FB0020414908708C
:103A500078E7E0793F4981F86D00084690F86D00FD
:103A600038B1084690F86D2004F108016E3002F07C
:103A70008CFC00253CE0A04800EB051000884FF6C8
:103A8000FF7188420FD13348C288F8219BA002F011
:103A9000EDFA06202F4981F8D20000F0DBFA002071
:103AA0002C4908704EE7944800EB0510008829491E
:103AB000C98888421AD1904800EB05104068254912
:103AC000C1F8DC008C4800EB05108068C1F8E0000C
:103AD000012081F8D300884800EB0510C068C1F8C8
:103AE000D800084640782C49087002E0681CC5B22E
:103AF000C1E700BF00BF25E770B504460D466078FA
:103B0000022804D12946204600F002FA18E0607825
:103B1000032804D12946204601F004F910E060781A
:103B20000B2804D12946204601F03FFD08E06078CB
:103B3000072804D12946204601F0B4FB00E070BDFF
:103B400004480078012802D1024981F8D40000BF5E
:103B5000F5E700003406002046494C453A20505213
:103B60004F544F434F4C5C70726F746F636F6C2E89
:103B7000632C204C494E453A2025643A50726F74AC
:103B80006F636F6C2030782578206F76657274696A
:103B90006D650D0A000000006800002046494C4594
:103BA0003A2050524F544F434F4C5C70726F746FB9
:103BB000636F6C2E632C204C494E453A2025643AA5
:103BC000524355206275736965730D0A0000000049
:103BD00046494C453A2050524F544F434F4C5C702D
:103BE000726F746F636F6C2E632C204C494E453A94
:103BF0002025643A52435520526570656174204611
:103C000072616D650D0A00007C00002046494C453C
:103C10003A2050524F544F434F4C5C70726F746F48
:103C2000636F6C2E632C204C494E453A2025643A34
:103C300050726F746F636F6C206C656E3D256420ED
:103C40006F7665726C656E0D0A00000046494C4542
:103C50003A2050524F544F434F4C5C70726F746F08
:103C6000636F6C2E632C204C494E453A2025643AF4
:103C7000446576696365204944206572726F720DF0
:103C80000A00000046494C453A2050524F544F43D9
:103C90004F4C5C70726F746F636F6C2E632C204C92
:103CA000494E453A2025643A646174612062756624
:103CB000206C656E3D2564206F7665720D0A0000EC
:103CC00046494C453A2050524F544F434F4C5C703C
:103CD000726F746F636F6C2E632C204C494E453AA3
:103CE0002025643A73756D20636865636B20657287
:103CF000726F720D0A000000E46E000846494C45E0
:103D00003A2050524F544F434F4C5C70726F746F57
:103D1000636F6C2E632C204C494E453A2025643A43
:103D2000436F6D6D616420636F6465203D20307862
:103D30002578206572726F720D0A00002DE9F0413E
:103D400007460D4616461C46AC480580AA20AC49DD
:103D5000087002204870084687702812C8700D71DC
:103D600084B90421A648401CFEF779F8A44948719B
:103D70000D2088710A20C8710A4608210220FFF729
:103D800014FC30E0012C13D130789D494871052195
:103D90009B48401CFEF763F8994988710D20C87153
:103DA0000A2008720A4609210220FFF7FEFB1AE0EA
:103DB0009348447122463146801D02F0E6FA601DA8
:103DC000C1B28F48401CFEF74AF8A11D8C4A5054DE
:103DD0000D21E01D11540A21401C1154401CC1B298
:103DE0000220FFF7E2FBBDE8F08108B5012000905A
:103DF00001236A4619460520FFF7A0FF08BD10B54C
:103E000000231A4602210120FFF798FF10BD70B56C
:103E100004460D462B46224603211520FFF78EFF50
:103E200070BD70B504460D462B4622462121152053
:103E3000FFF784FF70BD70B504460D462B46224641
:103E40000B211520FFF77AFF70BD08B50020009008
:103E500001236A4602210520FFF770FF08BD08B55F
:103E60000120009001236A461F210320FFF766FF0F
:103E700008BD08B50120009001236A4629210520CC
:103E8000FFF75CFFAFF215025E491220FEF73BF828
:103E900008BD10B55C495DA002F0E8F81B20574949
:103EA0000880AA2056490870FF2048708870552065
:103EB000C870AA200871FF20487115208871002061
:103EC000C8711B200872042048720220887255486D
:103ED0000078C8725448008800120873524800786D
:103EE000487309214648401DFDF7B9FF44498873CE
:103EF0000D20C8730A200874112141484B4A1268EA
:103F0000904710BD10B5AFF27500FFF7C7FB10BDAD
:103F100070B504460E46072E0BD10920444981F89E
:103F2000D20001200872E0784872002033490880EE
:103F300070BDE5784FF6FF7000EA0525207928442A
:103F400085B22A463B493CA002F090F8A07865284B
:103F500002D0A07866281AD1FF2035494870132D69
:103F600009D16179A01D00F025FA00221146012037
:103F700001F088FF0AE01F2D04D10121601D00F02F
:103F800047FA03E0202D01D100F021FAD0E71B48C9
:103F9000008885421AD1012D06D0022D0AD01B2D92
:103FA00010D01F2D11D109E000221146012001F08F
:103FB00069FF0AE0A0792549087006E0A079244944
:103FC000087002E0FFF70BFB00BF00BFFF2018499D
:103FD00081F8D200002009490880AFF2691209492E
:103FE0001220FDF790FF00BFA2E710B5AFF27D12DF
:103FF00004491220FDF787FF10BD00006C0000206F
:1040000018070020905F0100047100085B25735DB4
:10401000526164696F2053656E6420446174610D60
:104020000A000000820000208000002050000020D4
:1040300034060020167100085B25735D4C6F636BBE
:10404000207265673D307825780D0A006A000020EF
:104050006B00002010B5FB484078FB49087008460B
:10406000FA490968C0F80110F648C0880012F649FC
:104070004871F44880798871F24890F8D200C8718C
:10408000F048007A0872EF48007A38B1ED48027AB9
:1040900000F10901EC48093002F077F9E948007AAB
:1040A0000930C1B2E848FDF7DAFEE649097A09317C
:1040B000E54A5054E348007A0A30C1B21046FFF78F
:1040C000E4F810BD70B505460E461446FF20DE49E3
:1040D00008700846DD490968C0F801102812DA495D
:1040E00048718D71FE20C8710846047224B12246C1
:1040F0003146093002F049F904F10900C1B2D24851
:10410000FDF7ADFE04F10901CF4A5054481CC1B27D
:104110001046FFF7BAF870BD10B50446CA482168CA
:104120000160A1888180A17981710320C649C8718D
:10413000002008720921C448FDF791FEC249487267
:104140000A21C148FFF7A1F810BD10B50446BE48CA
:1041500021680160A1888180A17981710A20BA4912
:10416000C871002008720921B748FDF778FEB649EA
:1041700048720A21B448FFF788F810BD10B5B44959
:10418000B4A001F073FFFF20AE4981F8D200FFF721
:1041900061FFAC4890F86D2000F16E01AB4802F071
:1041A000F4F8AA4801F0A4FC00221146042001F012
:1041B00069FE10BD10B5AC49ACA001F057FFFF205F
:1041C000A04981F8D200FFF745FFAE4A4FF47A715B
:1041D0000F20FDF798FE10BD10B5AB49ABA001F064
:1041E00045FFFF20974981F8D20004200872084655
:1041F00096490968C0F80910FFF72CFF10BD10B5EB
:10420000A849A9A001F032FF8E4890F86E000B2853
:1042100019DB8C4890F86E001A2814DC894890F855
:104220006E00A649087008460078FFF741FAA348D7
:1042300001F06BFCFF20834981F8D200FFF70AFFF1
:10424000FFF739FA07E001207E4981F8D2000872B1
:104250004872FFF7FFFE10BD10B5994999A001F013
:1042600005FFFF20774981F8D200012008729348AA
:1042700000784872FFF7EEFE10BD70B5974998A020
:1042800001F0F4FE6F4890F86E40224600F16F0195
:104290009A4802F07AF8002098490855084601F03B
:1042A00069FC68486E30611C455CA21C81182A4676
:1042B000934802F06AF8002091494855084601F0F9
:1042C00070FCFF205F4981F8D200FFF7C3FE6D4A02
:1042D0004FF4FA710F20FDF716FE70BD10B5894935
:1042E00089A001F0C3FEFFF70DFE10BD10B58B498C
:1042F0008BA001F0BBFEFFF7ADFE10BD10B58F49DE
:104300008FA001F0B3FE4F4890F86D106E30FFF7AC
:104310007EFD10BD10B58F498FA001F0A7FEFFF7FD
:1043200099FE10BD10B5934993A001F09FFE45483A
:1043300090F86D106E30FFF774FD10BD10B5934905
:1043400093A001F093FEFFF785FE10BD10B59749CD
:1043500097A001F08BFEFFF748FD10BD10B59849FE
:1043600098A001F083FEFFF775FE10BD10B59B49C4
:104370009BA001F07BFE334890F86D106E30FFF784
:104380005AFD10BD10B59B499BA001F06FFEFFF7D1
:1043900061FE10BD10B59F499FA001F067FEFFF7B9
:1043A00054FD10BD10B5A149A1A001F05FFEFFF7BB
:1043B00051FE10BD70B504460D46A449A4A001F0FD
:1043C00055FE2A4621460D20FFF77CFE70BD10B534
:1043D000A649A7A001F04AFE002211460E20FFF7D1
:1043E00071FE10BD10B5A849A8A001F03FFEFFF76F
:1043F00036FD10BD10B5AC49A4A001F037FE012078
:1044000010490872A94800784872FFF723FE10BDD2
:1044100070B504460D46A649A6A001F027FE2A461F
:1044200021461020FFF74EFE70BD10B5A949AAA085
:1044300001F01CFEFF20034981F8D200FFF70AFEBD
:1044400010BD000034060020180700207C0000206A
:104450002B7100085B25735D536574204465766994
:1044600063652049440D0A003C7100085B25735DBB
:1044700053797374656D20526573746172740D0A9B
:10448000000000006D5600084F7100085B25735D49
:1044900052656164204465766963652049440D0A6C
:1044A00000000000617100085B25735D5365742096
:1044B0005A69676265652043480D0A008200002042
:1044C000787100085B25735D52656164205A6967E5
:1044D0006265652043480D0A0000000090710008E5
:1044E0005B25735D53657420536572766572204950
:1044F0005020706F72740D0A00000000B807002091
:10450000CC070020A47100085B25735D496E7374AD
:10451000616C6C204C6F636B0D0A0000B571000874
:104520005B25735D496E7374616C6C204C6F636BBB
:1045300020526573756C74730D0A0000CE7100080B
:104540005B25735D536574204C6F636B2050570D72
:104550000A000000E47100085B25735D5365742058
:104560004C6F636B20505720526573756C74730DDC
:104570000A000000027200085B25735D52657365D6
:1045800074204C6F636B2050570D0A001A7200089C
:104590005B25735D5265736574204C6F636B2050AF
:1045A0005720526573756C74730D0A003A720008D7
:1045B0005B25735D4F70656E204C6F636B0D0A0059
:1045C000487200085B25735D6F70656E204C6F63E9
:1045D0006B20526573756C74730D0A005E7200086F
:1045E0005B25735D44656C204F6E652050570D0A46
:1045F00000000000787200085B25735D44656C2044
:104600004F6E6520505720526573756C74730D0A98
:10461000000000009A7200085B25735D44656C2001
:10462000416C6C2050570D0A00000000B472000865
:104630005B25735D44656C20416C6C2050572052A3
:104640006573756C74730D0A00000000D672000863
:104650005B25735D50617373776F7264204F706573
:104660006E205265706F72740D0A0000EE720008C1
:104670005B25735D6B6579206F70656E2052657088
:104680006F72740D0A000000067300085B25735DED
:10469000526561642042617474657279206C65763C
:1046A000656C0D0A00000000227300086B000020FA
:1046B000467300085B25735D4261747465727920EE
:1046C0006C6576656C206C6F77205265706F7274C4
:1046D0000D0A00005A7300085B25735D4E6F206B56
:1046E0006579204F70656E0D0A00000010B59C4979
:1046F0009CA001F0BBFCFF20A04981F8D200FFF78D
:10470000A9FC10BD10B59E499EA001F0AFFC00F0C1
:10471000DDFA10BD10B5A0499AA001F0A7FCFFF783
:1047200099FC10BD10B59D499DA001F09FFC00F0C3
:1047300007FCFF20914981F8D200FFF78BFC10BDE8
:1047400010B59C499CA001F091FC00F091FCFF2069
:104750008A4981F8D200FFF77DFC10BD10B59B4956
:104760009BA001F083FCFF20844981F8D200FFF771
:1047700071FC10BD10B59B499BA001F077FC002295
:104780001146022001F07EFBFF207C4981F8D20017
:10479000FFF760FC10BD10B5974998A001F066FCCA
:1047A000FDF705FFFF20754981F8D200FFF752FCA5
:1047B00010BD10B5964997A001F058FCFDF703FF16
:1047C000FF206E4981F8D200FFF744FC10BD10B500
:1047D000954996A001F04AFC012000F09BFA10BD1B
:1047E00010B5964996A001F041FCFFF733FC10BDCF
:1047F00010B5994999A001F039FC002000F08AFA1F
:1048000010BD10B599499AA001F030FCFFF722FCC9
:1048100010BD10B59C499DA001F028FC00F070FA75
:1048200010BD10B59F4999A001F020FC022053490A
:1048300008729D480088001248729B4801784F48D2
:104840008172FFF707FC10BD10B5984998A001F0E0
:104850000DFC00F041FA10BD10B59B4994A001F089
:1048600005FC012045490872984800784872FFF716
:10487000F1FB10BD10B5964996A001F0F7FB00F0D2
:1048800039FBFF203D4981F8D200FFF7E3FB10BD63
:1048900010B5954995A001F0E9FB00F0C3FBFF209E
:1048A000364981F8D200FFF7D5FB10BD10B5944909
:1048B00094A001F0DBFB00F04BFDFF202F4981F8B5
:1048C000D200FFF7C7FB022000F07DFD0120FDF7BD
:1048D0008BFA182000F095FD0120FDF785FA0120E4
:1048E00000F0B1FD10BD10B58C498DA001F0BEFBEC
:1048F000224991F86E0001F06BF9FF201F4981F801
:10490000D200FFF7A7FB10BD10B58C498CA001F0B9
:10491000ADFB00F09CFCFF20184981F8D200FFF7A6
:1049200099FB10BD10B58C498CA001F09FFB00F0E5
:10493000AFFCFF20114981F8D200FFF78BFB10BDBF
:1049400010B58C498CA001F091FB00F028FE10BD41
:1049500010B58E498EA001F089FBFFF77BFB10BDDF
:10496000717300085B25735D52656164204C6F6351
:104970006B20496E666F0D0A0000000034060020AF
:10498000847300085B25735D496E7374616C6C20E1
:1049900043530D0A0000000093730008AA73000837
:1049A0005B25735D496E7374616C6C20434B0D0A1B
:1049B00000000000BF7300085B25735D496E7374CF
:1049C000616C6C20434E0D0A00000000D473000897
:1049D0005B25735D496E7374616C6C2041430D0AF5
:1049E00000000000E87300085B25735D43686563A1
:1049F0006B206F75740D0A00F57300085B25735DFD
:104A00004F70656E2052656C61790D0A00000000E0
:104A1000047400085B25735D436C6F7365205265F9
:104A20006C61790D0A000000147400085B25735D49
:104A30004F70656E2049520D0A0000002374000873
:104A40005B25735D4F70656E20495220526573750A
:104A50006C74730D0A0000003A7400085B25735DE6
:104A6000436C6F73652049520D0A00004A740008B8
:104A70005B25735D436C6F736520495220526573EB
:104A8000756C74730D0A0000627400085B25735D19
:104A9000526561642054656D7065726174757265EC
:104AA0000D0A00007A740008700000209A74000853
:104AB0005B25735D52656164204C756D696E616E36
:104AC00063650D0A00000000B07400086E0000204D
:104AD000CE7400085B25735D4375727461696E4B1B
:104AE000204F70656E0D0A00E07400085B25735D51
:104AF0004375727461696E4E204F70656E0D0A00C9
:104B0000F27400085B25735D546865726D6F737491
:104B10006174204F70656E0D0A0000000675000874
:104B20005B25735D546865726D6F737461742041A9
:104B300075746F204D6F64650D0A00001A750008CA
:104B40005B25735D4C696768744374726C20696E91
:104B50007374616C6C0D0A00307500085B25735D21
:104B60004C696768744374726C204F70656E0D0AEF
:104B700000000000437500085B25735D496E737487
:104B8000616C6C2042530D0A000000005275000851
:104B90005B25735D496E7374616C6C2042532052C7
:104BA0006573756C74730D0A000000002DE9F04107
:104BB00007460D4616461C468A480580AA208A49A3
:104BC000087003204870084687702812C8700D715D
:104BD00084B904218448401CFDF741F98249487199
:104BE0000D2088710A20C8710A4608210320FEF7AB
:104BF000DCFC30E0012C13D130787B494871052171
:104C00007948401CFDF72BF9774988710D20C87150
:104C10000A2008720A4609210320FEF7C6FC1AE0A2
:104C20007148447122463146801D01F0AEFB601D83
:104C3000C1B26D48401CFDF712F9A11D6A4A5054DB
:104C40000D21E01D11540A21401C1154401CC1B219
:104C50000320FEF7AAFCBDE8F08110B5634964A00B
:104C600001F004FA06205F490880AA205E49087016
:104C7000FF20487088705520C870AA200871FF2056
:104C80004871152088710020C87106200872042020
:104C90004872032088725C480078C8725B480088BC
:104CA0000012087359480078487309214E48401D86
:104CB000FDF7D5F84C4988730D20C8730A20087495
:104CC00011214948524A1268904710BD10B5AFF201
:104CD0007500FEF7E3FC10BD08B50120009001232C
:104CE0006A4619460320FFF761FF08BD08B5012099
:104CF000009001236A4602210320FFF757FF08BDF9
:104D000008B50220009001236A4603210846FFF7F8
:104D10004DFF08BD01B501236A4605210846FFF78E
:104D200045FF08BD70B504460E46072E0BD109207D
:104D3000384981F8D20001200872E07848720020DA
:104D40002849088070BDE5784FF6FF7000EA052518
:104D50002079284485B22A462F4930A001F086F9EF
:104D6000A078652802D0A078662808D1FF202949BC
:104D70004870022D02D1A0792D490870E2E7194848
:104D80000088854225D1072D22D2DFE805F02104D5
:104D9000080C211D1E00A0792649087018E0A07992
:104DA0002349087014E0A079234908800846008848
:104DB0004FF6FF7101EA00201F490880E079098859
:104DC00008441D49088003E002E0FEF708FC00BF2C
:104DD00000BFFF200F4981F8D20000200149088060
:104DE00000BFAFE7720000201807002069750008B7
:104DF0005B25735D526164696F2053656E64204466
:104E00006174610D0A000000820000208000002013
:104E100050000020340600207B7500085B25735D80
:104E20004353207265673D307825780D0A000000F5
:104E30006F0000206E0000207000002070B5044656
:104E40000D464FF41660FEF703FD21462846FEF797
:104E5000D8FC4FF41650FEF7FBFC70BD10B5974917
:104E600097A001F003F99A209B490870042048702C
:104E7000802088700020C8700A200871CC204871FA
:104E800008464078897848409349C9784840924913
:104E9000097948409049497948408F4988710721EC
:104EA0008D48FFF7CBFF10BD10B58C498CA001F0E9
:104EB000DDF89A20884908700420487080208870A6
:104EC0000020C8700A200871DD204871084640782B
:104ED000897848408049C97848407F4909794840E5
:104EE0007D49497948407C49887107217A48FFF714
:104EF000A5FF10BD10B5804980A001F0B7F89A2039
:104F00007549087004204870802088700020C8709F
:104F10000A200871EE204871084640788978484098
:104F20006D49C97848406C49097948406A494979CE
:104F300048406949887107216748FFF77FFF10BD26
:104F400010B5744974A001F091F89A206249087074
:104F500004204870802088700020C8700A200871E2
:104F6000AA20487108464078897848405A49C9784B
:104F70004840594909794840574949794840564974
:104F8000887107215448FFF759FF10BD10B56949D2
:104F900069A001F06BF89A204F490870052048700D
:104FA000802088700020C8700A200871CC204871C9
:104FB00008464078897848404749C978484046497A
:104FC0000979484044494979484043498871072153
:104FD0004148FFF733FF10BD10B55D495DA001F0FA
:104FE00045F89A203C490870052048708020887058
:104FF0000020C8700A200871DD20487108464078FA
:10500000897848403449C97848403349097948404B
:105010003149497948403049887107212E48FFF7C6
:105020000DFF10BD10B5514951A001F01FF89A2095
:105030002949087005204870802088700020C870B9
:105040000A200871EE204871084640788978484067
:105050002149C97848402049097948401E49497981
:1050600048401D49887107211B48FFF7E7FE10BD26
:1050700010B5454945A000F0F9FF9A20164908707F
:1050800005204870802088700020C8700A200871B0
:10509000AA20487108464078897848400E49C97866
:1050A00048400D49097948400B49497948400A4927
:1050B000887107210848FFF7C1FE10BD8E750008F2
:1050C0005B25735D6375727461696E73204B207329
:1050D000746F700D0A000000180700209A75000810
:1050E0005B25735D6375727461696E73204B206319
:1050F0006C6F73650D0A0000A77500085B25735D72
:105100006375727461696E73204B206F70656E0DEC
:105110000A000000B37500085B25735D6375727447
:1051200061696E73204B20496E7374616C6C0D0A5B
:1051300000000000C27500085B25735D6375727422
:1051400061696E73204E2073746F700D0A00000049
:10515000CE7500085B25735D6375727461696E734B
:10516000204E20636C6F73650D0A0000DB7500082C
:105170005B25735D6375727461696E73204E206F79
:1051800070656E0D0A000000E77500085B25735D11
:105190006375727461696E73204E20496E73746119
:1051A0006C6C0D0A000000002DE9F04107460D4629
:1051B00016461C465C480580AA205C4908700720FA
:1051C0004870084687702812C8700D7174B90421A0
:1051D0005648401CFCF743FE544948710D20887125
:1051E0000A20C8710820FEF70CFB2EE0012C11D11B
:1051F00030784E49487105214C48401CFCF72FFE81
:105200004A4988710D20C8710A2008720920FEF7EA
:10521000F8FA1AE04548447122463146801D01F0F3
:10522000B4F8601DC1B24148401CFCF718FEA11D36
:105230003E4A50540D21E01D11540A21401C1154C6
:10524000411CC8B21146FEF7DCFABDE8F08110B58A
:105250000224072034490880AA2034490870FF201E
:105260004870052088702012C87008460471072015
:10527000487105212D48401CFCF7F1FD2B49887130
:105280000D20C8710A2008720920FEF7BAFA10BD75
:1052900008B50720009001236A4619460520FFF74C
:1052A00083FF08BD70B504460E46072E0BD10920BA
:1052B0001F4981F8D20001200872E078487200206E
:1052C0001949088070BDE5784FF6FF7000EA0525A2
:1052D0002079284485B22A46164917A000F0C6FE58
:1052E000A078652802D0A078662808D1FF20104950
:1052F0004870012D02D1A07914490870E2E70A48EC
:105300000088854206D1012D03D1A0790F4908708C
:1053100000BF00BFFF20064981F8D20000200249EB
:10532000088000BFCEE700007600002018070020AC
:1053300034060020F67500085B25735D4C4320722F
:1053400065673D307825780D0A0000007400002064
:1053500010B54C494CA000F089FE06205049087059
:105360004870002088703420C87000200871012027
:10537000487106214A48FCF747FD044648498C71AC
:105380002012C8710820FEF73CFA10BD10B545493F
:1053900045A000F06BFE06204149087048700020CF
:1053A00088703420C87000200871487106213C487C
:1053B000FCF72AFD04463A498C712012C871082076
:1053C000FEF71FFA10BD70B504463D493DA000F040
:1053D0004DFE062032490870487000208870332046
:1053E000C87000200871084644710621FCF70CFDC6
:1053F00005462B498D712812C8710820FEF701FA65
:1054000070BD70B50446364936A000F02FFE282C3A
:1054100018DC0A2C16DB0620214908704870002091
:1054200088703120C8700020087108464471062138
:10543000FCF7EAFC05461A498D712812C87108204C
:10544000FEF7DFF970BD70B504462F492FA000F0BC
:105450000DFE062012490870487000208870322026
:10546000C87000200871084644710621FCF7CCFC86
:1054700005460B498D712812C8710820FEF7C1F945
:1054800070BD00000A7600085B25735D5468657284
:105490006D6F73746174206F70656E0D0A0000008B
:1054A00018070020147600085B25735D5468657248
:1054B0006D6F7374617420636C6F73650D0A000007
:1054C0001F7600085B25735D546865726D6F737499
:1054D000617420736574206D6F64650D0A000000AF
:1054E0002D7600085B25735D546865726D6F73746B
:1054F0006174207365742054656D70657261747594
:1055000072650D0A00000000427600085B25735D9D
:10551000546865726D6F737461742073657420775D
:10552000696E642073706565640D0A0010B53C49AE
:105530003CA000F09BFD012040490880AA20404982
:105540000870FF20487088705520C870AA20087124
:10555000FF204871152088710020C8710120087251
:10556000042048720B20887236480078C87236488A
:1055700000880012087334480078487309213048C5
:10558000401DFCF76CFC2E4988730D20C8730A205F
:10559000087411212A482D4A1268904710BD10B591
:1055A000AFF27700FEF77AF810BD70B504460E46EC
:1055B000072E0BD10920264981F8D200012008725C
:1055C000E078487200201D49088070BDE5784FF6EC
:1055D000FF7000EA05252079284485B22A461D4936
:1055E0001DA000F043FDA078652802D0A0786628B1
:1055F00003D1FF2016494870E7E71048008885422C
:1056000005D1012D02D1FDF7EAFF00BF00BFFF2049
:105610000F4981F8D20000200849088000BFD4E774
:10562000567600085B25735D526164696F2053658F
:105630006E6420446174610D0A000000780000204F
:105640001807002082000020800000205000002069
:1056500034060020697600085B25735D4353207291
:1056600065673D307825780D0A000000012080F341
:10567000138800BFFDF75CFAFDF725FF0120FCF75A
:10568000B3FB00BF6D48006800F4E0606C4908435C
:10569000001D6A490860BFF3408F00BF00BFFEE7EE
:1056A00010B568480078022805DB674967A000F05C
:1056B000DDFCFFF7DBFF00206249087010BD10B56C
:1056C00040216748FAF79FFFE0B966480068401C30
:1056D000644908600846006832280CD9624963A012
:1056E00000F0C4FC00221146032000F0CBFB002098
:1056F0005C49086010BDAFF2390205210C20FCF7AF
:1057000002FC02E000205749086000BFF2E710B534
:105710001420FCF731FB4020FAF768FEF8B1402175
:105720004F48FAF770FFB8B9564957A000F09EFCF1
:105730004448007858B9AFF2970264210B20FCF777
:10574000E2FBAFF2850205210C20FCF7DCFB3D48B3
:105750000078401C3B4908704020FAF758FE10BD05
:1057600008B500208DF803004FF6FF70ADF800007B
:1057700001208DF8020069464748FAF7B1FE6946F4
:105780004648FAF7ADFE69464548FAF7A9FE69466C
:105790004448FAF7A5FE08BD0EB500F028F94FF40D
:1057A000A060FAF741FD4820FCF7CCFAFFF7D8FFDC
:1057B000FCF768FBFCF741FDFCF714FFFCF7DAFE91
:1057C000FCF74CFFFDF7E0F800F018FC0520FCF7B3
:1057D0000BFB00F009FA0520FCF706FB32493348C1
:1057E000FDF7EFFF324B334A3348018833480078E6
:1057F000FDF7B3FEFEF7F9FB31483249324A334B2D
:10580000CDE900210290324A32493348FDF7F1FCDC
:10581000324933A000F02AFC0FE0FDF7D3FDFDF77D
:10582000C2FAFDF725FEFDF7B7FFFEF743F8FDF7D7
:10583000B2FC00F052FBFCF777FBEEE70CED00E06A
:105840000000FA05830000207D7600085B25735D6B
:105850002062746E20646220646F776E0D0A00000F
:1058600000180140840000208A7600085B25735DE3
:105870002062746E206C6F6E672070726573730D9A
:105880000A000000997600085B25735D62746E2043
:10589000646F776E0D0A000000080140000C0140A3
:1058A0000010014000140140E1240008B724000862
:1058B000F93A00088D2300088000002082000020B3
:1058C0002B390008252400087C000020CC0700208C
:1058D000B80700209A0700207C070020AC7600085B
:1058E0005B25735D73797374656D20737461727475
:1058F0000D0A0000704700BFFEE700BFFEE700BFD3
:10590000FEE700BFFEE77047704770477047000032
:105910000CB50020019000906C48006840F4803085
:105920006A49086000BF6948006800F400300090D0
:105930000198401C0190009818B90198B0F5A06F2B
:10594000F1D16248006800F4003010B101200090ED
:1059500001E0002000900098012843D15C480068D5
:1059600040F010005A4908600846006820F0030023
:1059700008600846006840F002000860534840682C
:10598000524948600846406848600846406840F40C
:10599000806048600846406820F47C1048600846F3
:1059A000406840F4E81048600846006840F08070A5
:1059B000086000BF4548006800F000700028F9D07A
:1059C0004248406820F0030040494860084640686B
:1059D00040F00200486000BF3C48406800F00C0006
:1059E0000828F9D10CBD10B5FFF792FF10BD10B516
:1059F0003648006840F001003449086008464068B5
:105A00003449084031494860084600683249084036
:105A10002E4908600846006820F480200860084687
:105A2000406820F4FE0048604FF41F008860FFF7D4
:105A3000DAFF4FF000602949086010BD10B5002161
:105A400000200022214B5B6803F00C0121B10429E6
:105A500006D0082928D107E0214B224C236027E0FB
:105A60001F4B204C236023E0184B5B6803F470103D
:105A7000164B5B6803F48032022303EB904022B99B
:105A8000194B4343174C23600DE0104B5B6803F444
:105A9000003323B1144B4343124C236003E0104BFB
:105AA0004343104C236003E00D4B0E4C236000BFBA
:105AB00000BF064B5B68C3F303130C4CE15C094B5E
:105AC0001B68CB40074C236010BD00000010024053
:105AD000002002400000FFF8FFFFF6FE08ED00E0A6
