:020000040800F2
:10000000900D0020E1010008ED390008EF390008EB
:10001000F3390008F7390008FB3900080000000038
:10002000000000000000000000000000FF39000890
:10003000013A000800000000033A0008053A0008F1
:10004000FB010008FB010008FB010008FB010008A0
:10005000FB010008FB010008FB010008FB01000890
:10006000FB010008FB010008FB010008FB01000880
:10007000FB010008FB010008FB010008FB01000870
:10008000FB010008FB010008FB010008FB01000860
:10009000FB010008FB010008FB01000847380008CD
:1000A000FB010008FB010008FB010008FB01000840
:1000B000FB010008FB010008DF1E0008FB0100082F
:1000C000FB010008FB010008FB010008FB01000820
:1000D000FB010008FB010008FB010008FB01000810
:1000E000FB010008FB010008FB010008FB01000800
:1000F000FB010008FB010008FB010008FB010008F0
:10010000FB010008FB010008FB010008FB010008DF
:100110000321000807220008FB010008FB0100087A
:10012000FB010008FB010008FB010008FB010008BF
:1001300000F002F800F045F80AA090E8000C8244B4
:100140008344AAF10107DA4501D100F03AF8AFF291
:10015000090EBAE80F0013F0010F18BFFB1A43F0A5
:1001600001031847204D0000404D0000103A24BF05
:1001700078C878C1FAD8520724BF30C830C144BF0C
:1001800004680C607047000000230024002500264E
:10019000103A28BF78C1FBD8520728BF30C148BFEA
:1001A0000B607047642903F09B87782903F0D4879C
:1001B000732904F07281002070471FB51FBD10B570
:1001C00010BD04F0DEF91146FFF7F7FF03F080FBE6
:1001D00004F0FCF903B4FFF7F2FF03BC01F0C6FE24
:1001E0000948804709480047FEE7FEE7FEE7FEE7CB
:1001F000FEE7FEE7FEE7FEE7FEE7FEE70448054907
:10020000054A064B70470000E73A00083101000834
:1002100090070020900D00209009002090090020F8
:1002200031490143314A1160704770B50021002304
:100230000F22C47804B32D4C246804F4E064C4F5A0
:10024000E064210AC1F10403CA40447804FA03F1CE
:100250008478144021430901254C0678A15504787F
:1002600004F01F050124AC4005786D11AD0005F1C7
:10027000E025C5F8004109E0047804F01F050124D9
:10028000AC401C4D0678761145F8264070BD1A4AE0
:100290000A400243154B1B1F1A60704739B1134ABD
:1002A000121D12680243114B1B1D1A6006E00F4A13
:1002B000121D126882430D4B1B1D1A6070470428E3
:1002C00008D14FF0E021096941F004014FF0E0222C
:1002D000116107E04FF0E021096921F004014FF0BE
:1002E000E0221161704700000000FA050CED00E00B
:1002F00000E400E080E100E080FFFF1F00204449AF
:100300000860091D0860091D0860091D0860414852
:100310003F4914310860704700213D498279002A25
:100320003AD00A46126803689A430B461A600A1DBF
:10033000126803689A430B1D1A60027911440A6817
:1003400003681A430A60324A0832126803689A4303
:100350002F4B08331A601A1D126803689A432C4BFE
:100360000C331A604279102A0ED11A1F12680368E2
:100370001A43274B08331A601A1D126803681A4380
:10038000234B0C331A600DE02149427911440A686D
:1003900003681A430A6005E0027911440A68036899
:1003A0009A430A6070470021016001710C2141717C
:1003B0000021817170471649103109680143144AC0
:1003C00010321160704701460020114A1432126841
:1003D0000A400AB1012000E0002070470C491431A6
:1003E00008607047014600200022094B1B6803EAA1
:1003F0000102074B14331B680B4013B10AB10120F3
:1004000000E0002070470249143108607047000086
:1004100000040140FFFF0F0010B50446CC488442A1
:1004200008D10121042000F02DFB0021042000F060
:1004300029FB46E0C748844208D10121082000F08A
:1004400021FB0021082000F01DFB3AE0C248844255
:1004500008D10121102000F015FB0021102000F030
:1004600011FB2EE0BD48844208D10121202000F07C
:1004700009FB0021202000F005FB22E0B84884425F
:1004800008D10121402000F0FDFA0021402000F0B9
:10049000F9FA16E0B348844208D10121802000F027
:1004A000F1FA0021802000F0EDFA0AE0AE48844223
:1004B00007D10121801500F0E5FA0021A01500F018
:1004C000E1FA10BD10B50121084600F0DBFA002169
:1004D000012000F0D7FA10BD2DE9F04102460025B9
:1004E0000026002000230024002791F803C00CF010
:1004F0000F0591F803C00CF0100CBCF1000F03D0F5
:1005000091F802C04CEA050591F800C0BCF1000F5B
:1005100031D0146800202BE04FF0010C0CFA00F3EE
:10052000B1F800C00CEA03069E4220D183004FF0D0
:100530000F0C0CFA03F7BC4305FA03FC4CEA040465
:1005400091F803C0BCF1280F06D14FF0010C0CFA52
:1005500000FCC2F814C00AE091F803C0BCF1480FD7
:1005600005D14FF0010C0CFA00FCC2F810C0401C81
:100570000828D1D31460B1F800C0BCF1FF0F34DDFE
:10058000546800202EE000F1080C4FF0010808FA32
:100590000CF3B1F800C00CEA03069E4221D183009F
:1005A0004FF00F0C0CFA03F7BC4305FA03FC4CEABE
:1005B000040491F803C0BCF1280F05D100F1080C28
:1005C00008FA0CF8C2F8148091F803C0BCF1480F87
:1005D00007D100F1080C4FF0010808FA0CF8C2F836
:1005E0001080401C0828CED35460BDE8F0814FF63F
:1005F000FF710180022181700421C17070470246A1
:10060000002093680B400BB1012000E000207047F0
:100610000146886880B2704702460020D3680B40CC
:100620000BB1012000E0002070470146C86880B28D
:10063000704701617047416170470AB1016100E094
:1006400041617047C16070474FF480320A43826154
:100650008161826182698269704702460020434B52
:1006600018684FF68073184040EA021008433F4B69
:10067000186070473E49C8617047F0B50A460023CC
:1006800000240021002500F00046B6F1004F02D101
:10069000364EF16901E0354E7168C0F3034583B20F
:1006A00000F44016B6F5401F08D121F070612F4EBE
:1006B000766826F070662D4F7E6012E000F480169A
:1006C000B6F5801F06D1032606FA05F4A14341F0D2
:1006D000706106E0460D360103FA06F6B14341F0BB
:1006E000706122B1460D360103FA06F6314300F07F
:1006F0000046B6F1004F02D11C4EF16101E01B4EE5
:100700007160F0BD30B500228B071C0F0F2303FA78
:1007100004F2164B08338C1053F824309343134CD7
:1007200008348D1044F8253023468C1053F82430BB
:100730008C07240F00FA04F423430C4C08348D106A
:1007400044F8253030BD0A49DC31086070470000AC
:1007500000080140000C014000100140001401405D
:1007600000180140001C0140002001400000014031
:1007700000002042DF48006840F00100DD490860C9
:1007800008464068DC490840DA4948600846006885
:10079000DA490840D74908600846006820F48020FC
:1007A00008600846406820F4FE0048604FF41F00CF
:1007B00088607047CF49096821F48031CD4A1160C3
:1007C0001146096821F480211160B0F5803F03D003
:1007D000B0F5802F0ED106E0C649096841F480319A
:1007E000C44A116007E0C349096841F4A021C14A25
:1007F000116000E000BF00BF704710B50146002245
:10080000002300204A11012A02D1BA4C236806E0D5
:10081000022A02D1B74C236A01E0B64C636A01F0A8
:100820001F02012494401C400CB1012000E0002074
:1008300010BD38B5002000900024002500BF3120F5
:10084000FFF7DBFF05460098401C00900098B0F5CC
:10085000A06F01D0002DF2D03120FFF7CEFF08B1FC
:10086000012400E00024204638BD01460020A14AB2
:10087000106820F0F80040EAC10010607047A049FD
:1008800008607047024600209A4B586820F47C109C
:1008900042EA01031843974B58607047984908662D
:1008A000704701460020934A506820F00300084337
:1008B000506070478F48406800F00C007047014658
:1008C00000208C4A506820F0F000084350607047C8
:1008D00001460020874A506820F4E06008435060D9
:1008E000704701460020834A506820F4605040EA77
:1008F000C1005060704729B17E4A527A02437D4B55
:100900005A7204E07B4A527A82437A4B5A72704799
:100910007B49D8310860704701460020754A50680D
:1009200020F440400843506070470021714A203253
:100930001170704A82F82010012802D004280AD1D0
:1009400004E001216B4A2032117005E00521694A5B
:100950002032117000E000BF00BF70476949086095
:1009600070476449096A0143624A116270476549E8
:1009700044390860704730B500210022002400236C
:100980005C4D6D6805F00C0121B1042905D00829E2
:1009900023D105E05C4D056022E05B4D05601FE062
:1009A000544D6D6805F47012524D6D6805F4803435
:1009B000022505EB92421CB9544D554305600BE0EE
:1009C0004C4D6D6805F400351DB1504D5543056023
:1009D00002E04D4D5543056002E04B4D056000BF00
:1009E00000BF444D6D6805F0F0010909484D6B5C8E
:1009F0000568DD4045603F4D6D6805F4E061090A1A
:100A0000434D6B5C4568DD4085603A4D6D6805F48B
:100A10006051C90A3E4D6B5C4568DD40C560354D8F
:100A20006D6805F44041890B3A4D6B5CC568B5FBB8
:100A3000F3F5056130BD29B12E4A526902432D4BB1
:100A40005A6104E02B4A526982432A4B5A6170472B
:100A500029B1284A92690243264B9A6104E0254A4B
:100A600092698243234B9A61704729B1214AD26926
:100A70000243204BDA6104E01E4AD26982431D4BD7
:100A8000DA61704729B11B4AD2680243194BDA6018
:100A900004E0184AD2688243164BDA60704729B1E5
:100AA000144A12690243134B1A6104E0114A126995
:100AB0008243104B1A6170471249403908607047F1
:100AC0000F49C86470470B49C87170470948406AAC
:100AD00040F0807007494862704701460020054A8F
:100AE00092680A400AB1012000E0002070470149E5
:100AF00088727047001002400000FFF8FFFFF6FE0A
:100B0000000042428004424200127A0000093D0087
:100B1000000000201000002010B50446FE4884426A
:100B200008D10121C014FFF7ADFF0021E014FFF749
:100B3000A9FFC4E0B4F1804F08D101210846FFF7B6
:100B4000AEFF00210120FFF7AAFFB8E0F34884427E
:100B500008D101210220FFF7A2FF00210220FFF7A8
:100B60009EFFACE0EE48844208D101210420FFF74B
:100B700096FF00210420FFF792FFA0E0E94884429D
:100B800008D101210820FFF78AFF00210820FFF784
:100B900086FF94E0E448844208D101211020FFF749
:100BA0007EFF00211020FFF77AFF88E0DF488442B3
:100BB00008D101212020FFF772FF00212020FFF73C
:100BC0006EFF7CE0DA48844208D101214014FFF72F
:100BD00059FF00216014FFF755FF70E0D5488442AB
:100BE00009D10121C804FFF74DFF00214FF4002077
:100BF000FFF748FF63E0D048844209D1012108058E
:100C0000FFF740FF00214FF48010FFF73BFF56E055
:100C1000CA48844209D101214805FFF733FF00216A
:100C20004FF40010FFF72EFF49E0C548844208D179
:100C300001214020FFF733FF00214020FFF72FFF65
:100C40003DE0C048844208D101218020FFF727FF02
:100C500000218020FFF723FF31E0BB48844208D108
:100C600001218015FFF71BFF0021A015FFF717FFDB
:100C700025E0B648844209D101210804FFF702FFAC
:100C800000214FF48030FFF7FDFE18E0B0488442A9
:100C900009D101214804FFF7F5FE00214FF400308F
:100CA000FFF7F0FE0BE0AB48844208D10121880435
:100CB000FFF7E8FE00214FF48020FFF7E3FE10BDB0
:100CC00000220288944B98420ED0994B98420BD048
:100CD000B0F1804F08D0914B984205D0904B98428C
:100CE00002D0904B984204D14FF68F731A404B8834
:100CF0001A438D4B984207D08C4B984204D04FF644
:100D0000FF431A40CB881A4302808B8883850B8867
:100D10000385814B98420BD0854B984208D08B4B72
:100D2000984205D08A4B984202D08A4B984201D112
:100D30000B7A038601238382704770B5002400225A
:100D40000023058C4FF6FE7635400584028C83889F
:100D5000048B4FF68F752C40B51E2C400D882C430C
:100D6000751E2A400D892A434D882A436A4DA842A0
:100D70000BD06F4DA84208D0744DA84205D0744DD9
:100D8000A84202D0734DA84213D14FF6F7752A40FE
:100D90004D892A434FF6FB752A408D882A434FF62A
:100DA000FF652B404FF6FF552B408D892B43CD8996
:100DB0002B4383800483CD888586028470BD70B503
:100DC000002400220023058C4FF6EF763540058481
:100DD000028C8388048B48F6FF752C404FF6FF4544
:100DE0002C400D884FF6FF7606EA05252C434FF67A
:100DF000DF752A400D8906EA05152A434D8806EA63
:100E000005152A43444DA84202D0494DA8421DD1A0
:100E10004FF67F752A404D894FF6FF7606EA051595
:100E20002A434FF6BF752A408D8806EA05152A43E6
:100E30004FF6FF352B404FF2FF752B408D8906EAA8
:100E400085052B43CD8906EA85052B4383800483E2
:100E5000CD880587028470BD70B500240022002370
:100E6000058C4FF6FF6635400584028C8388848BA1
:100E70004FF68F752C404FF6FC752C400D882C4397
:100E80004FF6FF552A400D894FF6FF7606EA0525F5
:100E90002A434D8806EA05252A431F4DA84202D061
:100EA000234DA8421DD14FF2FF752A404D894FF6C0
:100EB000FF7606EA05252A434FF6FF352A408D883E
:100EC00006EA05252A434EF6FF752B404DF6FF75C1
:100ED0002B408D8906EA05152B43CD8906EA0515B9
:100EE0002B4383808483CD888587028470BD70B551
:100EF000002200230024058C4EF6FF763540058441
:100F0000038C8488828B48F6FF752A404FF6FF4594
:100F10002A400D8820E00000002C01400004004021
:100F200000080040000C0040001000400014004089
:100F300000340140004C0140005001400054014089
:100F400000180040001C004000200040004001400C
:100F500000440140004801404FF6FF7606EA0525AF
:100F60002A434DF6FF752B400D8906EA05352B43C4
:100F70004D8806EA05352B43FA4DA84202D0FA4DBA
:100F8000A84208D14BF6FF752C408D894FF6FF76AD
:100F900006EA85152C4384808283CD88A0F84050D2
:100FA000038470BD828B4FF2FF331A408283828BA1
:100FB0004FF6FF7303EA01231A4382837047F0B5AB
:100FC0000C461546002200210026078C4EF6FF7CB9
:100FD00007EA0C070784828B018C4FF6FF7707EA3C
:100FE000043640F6FF473A404FF6FF7707EA0527F9
:100FF0003A434FF6FF7707EA03373A43D94FB842EF
:101000000ED0D94FB8420BD0B0F1804F08D0D74F97
:10101000B84205D0D64FB84202D0D64FB84206D11A
:101020004DF6FF77394046F48057394305E047F6DF
:10103000FF57394044F48057394382830184F0BD1F
:10104000828B4FF6F3731A408283828B0A4382832A
:101050007047F0B50C461546002200210026078C8B
:101060004FF6FF6C07EA0C070784828B018C4FF662
:10107000FF7707EA04264FF60C773A404FF6FF77E2
:1010800007EA03172F433A43B64FB8420ED0B64F84
:10109000B8420BD0B0F1804F08D0B44FB84205D061
:1010A000B34FB84202D0B34FB84206D14FF6FF5704
:1010B000394046F48077394305E04FF2FF57394015
:1010C00044F48077394382830184F0BD028B4FF270
:1010D000FF331A400283028B4FF6FF7303EA0123AA
:1010E0001A4302837047F0B50C46154600220021D2
:1010F0000026078C4FF6EF7C07EA0C070784028B6B
:10110000018C4FF6FF7707EA041640F6FF473A4096
:101110004FF6FF7707EA03373A434FF6FF7707EAC0
:1011200005273A438F4FB8420ED08F4FB8420BD0AD
:10113000B0F1804F08D08D4FB84205D08C4FB842E7
:1011400002D08C4FB84206D14FF6DF77394046F0D7
:101150001007394305E04FF65F77394044F0100738
:10116000394302830184F0BD028B4FF6F3731A40BA
:101170000283028B0A4302837047F0B50C46154682
:1011800000220021068C4FF6FE773E400684028B3B
:10119000018C4FF60C7632407E1C06EA03162E4375
:1011A0003243704EB0420ED06F4EB0420BD0B0F111
:1011B000804F08D06D4EB04205D06D4EB04202D087
:1011C0006C4EB04206D14FF6FD76314044F0010638
:1011D000314305E04FF6F576314044F001063143E6
:1011E00002830184F0BD70B505460C465D4885421A
:1011F0000ED05D4885420BD0B5F1804F08D05B48DA
:10120000854205D05A48854202D05A48854200D1CD
:1012100000E000BF208850B92389A2886188284651
:10122000FFF7ABFFE1882846FFF79EFF25E0208807
:1012300004280AD12389A28861882846FFF753FF32
:10124000E1882846FFF742FF17E0208808280AD1E6
:101250002389A28861882846FFF7FBFEE18828469B
:10126000FFF7EEFE09E02389A28861882846FFF790
:10127000A6FEE1882846FFF795FE70BD2DE9F041F6
:1012800005460C4600260127608808B9022600E0C2
:101290000026A088012801D1022700E0012720882C
:1012A000A0B92389A28861882846FFF766FFE188F4
:1012B0002846FFF759FF23893A4631462846FFF76B
:1012C00012FFE1882846FFF701FF13E02389A28877
:1012D00061882846FFF707FFE1882846FFF7F6FEFA
:1012E00023893A4631462846FFF747FFE1882846DA
:1012F000FFF73AFFBDE8F0810A884B881A438B88D4
:101300001A43CB881A430B891A434B891A438B899A
:101310001A43A0F8442070474FF6FF7181800021E6
:101320000180C180418001727047002101804180AD
:101330008180C180018141818181C181704700210B
:1013400001804180012181800021C180018170479D
:101350000021018041808180C180018141818181A2
:1013600070470000002C01400034014000040040A0
:1013700000080040000C004021B1028842F0010248
:10138000028004E002884FF6FE731A400280704724
:1013900031B1B0F8442042F40042A0F8442005E006
:1013A000B0F84420C2F30E02A0F8442070471AB1EE
:1013B00083890B43838102E083898B438381704758
:1013C0008182704741EA0203A0F8483070471AB1A1
:1013D00083890B43838102E083898B438381704738
:1013E00001894FF6F8721140018170470A460021C9
:1013F00001894FF68F73194011430181704730B551
:1014000004460D4629462046FFF7F0FF208940F0AC
:101410000700208130BD2DE9F04104460D461646F7
:101420001F46602D06D13B46012231462046FFF77C
:101430005AFE05E03B46012231462046FFF79DFE5D
:1014400029462046FFF7D2FF208940F0070020817F
:10145000BDE8F08130B50C4600210189C9B24FF6D4
:10146000FF7505EA0325154325432943018130BD56
:101470002DE9F04105460E4617469846002443469E
:101480003A4631462846FFF7E5FF2C894FF6F870BB
:10149000044044F007044FF68F70044044F0700499
:1014A0002C81BDE8F081F0B504460D4616461F4676
:1014B0003B46324629462046FFF7CCFF208940F4C0
:1014C00080402081F0BD0185828270470A4600215C
:1014D00001884FF68F731940114301807047F0B5B2
:1014E0000C4615461E460021002200230189028B6E
:1014F000038C4FF6F877394021434FF6FC473A40CA
:1015000040F201173A434FF6DD773B404FF6FF7745
:1015100007EA06172F433B43018102830384F0BD92
:101520000A460021018B4FF68F7319401143018346
:1015300070470A460021018B48F6FF7319404FF6A9
:10154000FF7303EA02231943018370470A4600210F
:10155000818B4FF68F7319401143818370470A4680
:101560000021818B48F6FF7319404FF6FF7303EAA1
:10157000022319438183704721B1028842F080021F
:10158000028004E002884FF67F731A4002807047A1
:1015900021B1828842F00402828004E082884FF602
:1015A000FB731A408280704721B1828842F00802A2
:1015B000828004E082884FF6F7731A408280704779
:1015C00021B1828842F00102828004E082884FF6D5
:1015D000FE731A40828070470A460021018B4FF645
:1015E000F77319401143018370470A460021018BAC
:1015F0004FF2FF7319404FF6FF7303EA02231943BA
:10160000018370470A460021818B4FF6F77319401A
:101610001143818370470A460021818B4FF2FF738B
:1016200019404FF6FF7303EA022319438183704781
:101630000A460021018B4FF6FB73194011430183C9
:1016400070470A460021018B4FF6FF3319404FF6D1
:10165000FF7303EA02231943018370470A460021FE
:10166000818B4FF6FB7319401143818370470A4603
:101670000021818B4FF6FF3319404FF6FF7303EAC9
:1016800002231943818370470A460021018B4FF6DC
:101690007F7319401143018370470A460021018B73
:1016A000C1F30E014FF6FF7303EA022319430183CE
:1016B00070470A460021818B4FF67F731940114312
:1016C000818370470A460021818BC1F30E014FF6DA
:1016D000FF7303EA02231943818370470A460021FE
:1016E000018C4FF6FD7319401143018470470A467F
:1016F0000021018C4FF6F7731940114301847047A4
:101700000A460021018C4FF6DF7319404FF6FF7334
:1017100003EA02131943018470470A460021018C31
:101720004FF67F7319404FF6FF7303EA0213194314
:10173000018470470A460021018C4FF6FF5319407F
:101740004FF6FF7303EA02231943018470470A46E8
:101750000021018C4FF2FF7319404FF6FF7303EA2B
:1017600002231943018470470A460021018C4DF67B
:10177000FF7319404FF6FF7303EA023319430184E4
:10178000704730B5002301248C40A3B2048C9C43E5
:101790000484048C02FA01F5ADB22C43048430BDFC
:1017A00030B5002304248C40A3B2048C9C430484F1
:1017B000048C02FA01F5ADB22C43048430BD70B53F
:1017C0000346002000241846183001258D40ACB295
:1017D0001D8CA5431D8409B1082909D100EB6100C6
:1017E000056825F0700505600568154305600EE085
:1017F0000D1FC5F34E052844056825F4E045056036
:1018000005684FF6FF7606EA02263543056070BD8F
:1018100021B1028842F00202028004E002884FF601
:10182000FD731A400280704721B1028842F0040221
:10183000028004E002884FF6FB731A400280704772
:1018400021B1828842F08002828004E082884FF6D3
:101850007F731A408280704702884FF6F7731A40F0
:10186000028002880A430280704782884FF68F7395
:101870001A40828082880A438280704702894FF62C
:10188000F8731A40028102890A4302817047028973
:101890004FF67F731A40028102890A430281704722
:1018A00081847047818570478186704701877047C2
:1018B00081877047A0F84010704702884FF6FF43B9
:1018C0001A40028002880A43028070470146888ECF
:1018D00070470146088F70470146888F7047014660
:1018E000B1F8400070470146888C70470146088D6A
:1018F000704702460020138A0B400BB1012000E024
:1019000000207047CA430282704730B5024600206B
:1019100000230024158A05EA0103958905EA0104DC
:1019200013B10CB1012000E0002030BDCA43028297
:101930007047000010B50446FB48844209D10121DC
:101940008803FFF79FF800214FF48040FFF79AF8D3
:1019500032E0F648844209D101214804FFF79FF89C
:1019600000214FF40030FFF79AF825E0F048844258
:1019700009D101218804FFF792F800214FF480205B
:10198000FFF78DF818E0EB48844209D10121C80423
:10199000FFF785F800214FF40020FFF780F80BE0F7
:1019A000E548844208D101210805FFF778F80021B5
:1019B0004FF48010FFF773F810BD2DE9F04786B0A3
:1019C00005460E460024A24600BFA1460027B08966
:1019D00000B100BF2F462C8A4CF6FF700440F088FF
:1019E00004432C82AC894EF6F3100440B088318950
:1019F0000843718908430443AC81AC8A4FF6FF4029
:101A00000440B0890443AC8201A8FEF7B4FFC64885
:101A1000874202D1DDF810A001E0DDF80CA0A88912
:101A200000F4004040B10AEBCA0000EB0A10316834
:101A30004900B0FBF1F807E00AEBCA0000EB0A101E
:101A400031688900B0FBF1F86420B8FBF0F00401C4
:101A50002009642101FB1089A88900F4004040B1ED
:101A6000322000EBC900B0FBF1F000F007000443A6
:101A700008E0322000EB09106421B0FBF1F000F027
:101A80000F0004432C8106B0BDE8F0874FF41651D7
:101A9000016000218180C18001810C2141810021F0
:101AA0008181704710B502460020108A4FF2FF0373
:101AB00018400B884C8823438C882343CC882343CD
:101AC0001843108210BD0021018041808180C180B7
:101AD000704721B1828942F40052828104E08289F8
:101AE0004DF6FF731A4082817047F0B5034600241B
:101AF00000260025002040F66A17B94200D100BF39
:101B00001846C1F3421401F01F06012707FA06F533
:101B1000012C01D10C3004E0022C01D1103000E086
:101B200014301AB107682F43076002E00768AF431B
:101B30000760F0BD1AB1838A0B43838202E0838A77
:101B40008B4383827047028A4FF6F0731A400282F9
:101B5000028A0A430282704782894FF2FF731A4059
:101B6000828182890A438281704721B1828942F051
:101B70000202828104E082894FF6FD731A4082815D
:101B80007047028A4FF6DF731A400282028A0A43C4
:101B90000282704721B1028A42F48042028204E04C
:101BA000028A4BF6FF731A4002827047C1F30802A3
:101BB0008280704701468888C0F308007047818999
:101BC00041F0010181817047028BD2B20283028B06
:101BD00042EA012202837047028B02F47F420283B1
:101BE000028B0A430283704721B1828A42F02002AD
:101BF000828204E0828A4FF6DF731A408282704745
:101C000021B1828A42F01002828204E0828A4FF679
:101C1000EF731A408282704721B1828A42F0080233
:101C2000828204E0828A4FF6F7731A4082827047FC
:101C300021B1828942F40042828103E08289C2F3A9
:101C40000E028281704721B1828A42F40062828250
:101C500004E0828A4FF2FF731A4082827047828AC0
:101C60004FF6FB731A408282828A0A43828270474F
:101C700021B1828A42F00202828204E0828A4FF617
:101C8000FD731A408282704702460020B1F5007F42
:101C900000D100BF13880B400BB1012000E00020F1
:101CA000704701F40072B2F5007F00D100BFCA4353
:101CB0000280704770B502460024002300250020F2
:101CC00040F66A16B14200D100BFC1F3421501F0DF
:101CD0001F03012606FA03F3012D02D19689334032
:101CE00006E0022D02D1168A334001E0968A334085
:101CF0000C12012606FA04F41688344013B10CB114
:101D0000012000E0002070BD10B50022002340F645
:101D10006A14A14200D100BF0A1201249440A3B268
:101D2000DC43048010BD0000003801400044004046
:101D300000480040004C00400050004010B50446F0
:101D40006FF00400FEF7BBFAE11704EB5171C1F329
:101D5000C701294A11701046007800EB4001C1EB21
:101D6000C0104FF6FF7101EAC0002449088010BD81
:101D70000146224A12884A434FF0E0235A6100226A
:101D80009A6101221A6100BF4FF0E022106900F051
:101D900001021AB100F48032002AF5D000224FF07F
:101DA000E0231A619A6170470146134A12784A4348
:101DB0004FF0E0235A6100229A6101221A6100BFAC
:101DC0004FF0E022106900F001021AB100F48032F5
:101DD000002AF5D000224FF0E0231A619A61704783
:101DE00010B5044604E0641E4FF47A70FFF7C0FF9C
:101DF000002CF8D110BD00001400002016000020B7
:101E000070B502460C46FF25FF2309E012F8010BCE
:101E100080EA03011748405C80EA05031648455CE8
:101E20002000A4F10106B4B2F0D143EA052070BD50
:101E300030BF704772B6704762B6704710B5024641
:101E40000B460020002103E0545C60404C1CE1B2D2
:101E50009942F9DB10BD10B502460B460020002167
:101E600004E0545C0444E0B24C1CE1B29942F8DB5B
:101E700010BD0000264B0008264C00081FB50121AC
:101E80000420FEF7F2FD6420ADF8080041F61F4083
:101E9000ADF804000020ADF80A00ADF8060001A975
:101EA0002F48FEF70DFF012211462D48FFF77FFA5C
:101EB0001E208DF8000002208DF8010000208DF812
:101EC000020001208DF803006846FEF7AEF90121FB
:101ED0002348FFF751FA0020224908601FBD10B5C2
:101EE00001211F48FFF711FD40B101211C48FFF7F8
:101EF0001DFD1C480068401C1A49086010BD10B543
:101F0000184B1B680B44184C44F83030234603EB45
:101F1000C0035A6010BD0021134A42F830107047C8
:101F200010B5002419E0104850F8340098B10E485C
:101F300050F834000B49096888420CD200200A4945
:101F400041F83400084600EBC400406818B101EBCA
:101F5000C40148688047601CC4B2142CE3DB10BD88
:101F600000080040180000206C000020014600BF5F
:101F7000704700BFC64A128802F04002002AF9D01A
:101F8000C2B2C34B1B1D1A80704710B586B0044601
:101F900001213020FEF75CFD01210805FEF765FDFB
:101FA000BC48FFF7C7FC4FF48050ADF81000032089
:101FB0008DF8120018208DF8130004A9B648FEF71A
:101FC0008BFA0420ADF8100048208DF8130004A906
:101FD000B248FEF781FA00940020ADF80400ADF895
:101FE0000600ADF80800ADF80C000C20ADF80A00B2
:101FF0006946A848FFF7E1FC0121A648FFF769FD03
:10200000012240F22551A348FFF76FFD35208DF8DE
:10201000140001208DF8150002208DF81600012013
:102020008DF8170005A8FEF700F900209C490880EC
:1020300006B010BD10B586B0044601211120FEF790
:1020400007FD0121C804FEF710FD9648FFF772FC5A
:102050004FF48060ADF8100003208DF812001820B6
:102060008DF8130004A98C48FEF736FA4FF400608F
:10207000ADF8100004208DF8130004A98648FEF77F
:102080002BFA34208DF8140001208DF81500022061
:102090008DF8160001208DF8170005A8FEF7C5F889
:1020A00000940020ADF80400ADF80600ADF808007B
:1020B000ADF80C000C20ADF80A0069467948FFF72E
:1020C0007CFC012240F225517648FFF70EFD0121EC
:1020D0007448FFF7FEFC00207349088006B010BD6D
:1020E00010B54FF4E130FFF7A5FF4FF4E130FFF7F3
:1020F0004CFF10BD6C48008840F400406A490880DD
:10210000704710B540F225516648FFF7D3FD20B364
:102110006448FFF74FFDC4B26348008800F40040F4
:10212000D8B96148008828B9AFF2370203210420EA
:10213000FFF7E5FE5C4800883F2808DA5A48018826
:102140000088401C584A10805848445405E05648BE
:10215000008840F400405449088010BD70B5054621
:102160000E4600240CE000BF40214E48FFF78CFDD6
:102170000028F9D0295D4B48FFF718FD601CC4B258
:10218000B442F0DB70BD2DE9F05F05464FF0240846
:1021900000214448FFF79DFC280102F065FB8146C1
:1021A000434908FB01F002F05FFB8246494602F01A
:1021B00079FA0646304602F037FB84B2204602F038
:1021C00053FB8346314602F02FFC82464FF0834199
:1021D00002F05EFB814602F027FB07464FF6FF70D8
:1021E00000EA0414E0192F490831088001212D4824
:1021F000FFF76FFCBDE8F09F2948008840F40040DD
:1022000027490880704710B540F225512148FFF753
:1022100051FD38B31F48FFF7CDFCC4B220480088F9
:1022200000F40040F0B91E48008828B9AFF2370228
:1022300003210846FFF763FE194800883F2808DAA3
:10224000174801880088401C154A108019484454DA
:1022500008E01348008840F4004011490880142029
:10226000FFF759FE10BD70B505460E4600240CE080
:1022700000BF40210748FFF707FD0028F9D0295D7E
:102280000448FFF793FC601CC4B2B442F0DB70BD9D
:10229000003801400050004000100140001401408F
:1022A00024000020004C0040200000200C010020F1
:1022B00040420F004C0100201FB501214120FEF7D4
:1022C000C7FB0120ADF80C0048208DF80F0003205B
:1022D0008DF80E0003A91548FEF7FEF801211348FA
:1022E000FEF7A7F90120FEF78EF800210220FEF785
:1022F00009FA4020019000208DF808000C208DF88C
:10230000090001208DF80A0001A8FEF705F8062053
:102310008DF8000002208DF8010001208DF80200E8
:102320008DF803006846FDF780FF1FBD00100140D7
:1023300008B501211020FEF78BFB2020ADF800002E
:1023400010208DF8030003208DF8020069460A482A
:10235000FEF7C2F820210848FEF76BF908BD10B55A
:1023600020210548FEF767F910BD10B5202102486D
:10237000FEF75FF910BD00000010014008B5012113
:102380000820FEF765FBC020ADF8000010208DF896
:10239000030003208DF802006946E348FEF79CF82D
:1023A000C021E148FEF745F908BD10B5DE480068D8
:1023B00020F07040DC4908600846006840F040505A
:1023C00008600120D9490860D949C1F898010A205C
:1023D000FFF7EAFC0020D54908600A20FFF7E4FC7B
:1023E0000020D349C1F8980110BD10B5CE4800684F
:1023F00020F07040CC4908600846006840F040502A
:1024000008600020C949091F0860C949C1F89C013A
:102410000A20FFF7C9FC0120C449091F0860C4490C
:10242000C1F89C010A20FFF7BFFC10BD10B50024C5
:10243000BD48006820F07040BB490860084600684D
:1024400040F0004008600120B84908600A20FFF70A
:10245000ABFC0120B649C1F898010A20FFF7A4FCA3
:1024600007E0601CC4B2FA2C03DDFFF7BEFF0120B9
:1024700010BDAE48803800680028F2D1AB49091F72
:10248000086000BFF4E710B50020A849091F0860E4
:10249000A548006820F07040A3490860084600681D
:1024A00040F0405008600020A149C1F89C010A207A
:1024B000FFF77AFC01209D49091F08600A20FFF7F9
:1024C00073FC00209A49C1F8980110BD10B5002096
:1024D0009649091F08609448006820F070409249AE
:1024E00008600846006840F04050086001209049AC
:1024F000C1F89C010A20FFF757FC01208B49091FF6
:1025000008600A20FFF750FC00208949C1F89801B3
:1025100010BD70B504468448006820F070408249C0
:1025200008600846006840F04050086000207F497D
:10253000091F086000251DE0E00918B101207B4952
:10254000086002E00020794908606006040E0A2055
:10255000FFF72AFC01207549091F08600A20FFF7D0
:1025600023FC00207249C1F898010A20FFF71CFCE7
:10257000681CC5B2082DDFDB70BD70B505460024B0
:102580006948006820F070406749086008460068A4
:1025900040F000400860002617E000206349091F52
:1025A00008600A20FFF700FC01206149C1F898018A
:1025B0006006040E5D488038006808B1601CC4B233
:1025C0000A20FFF7F1FB701CC6B2082EE5DB15B937
:1025D000FFF77CFF01E0FFF756FF5348006820F04B
:1025E0007040514908600846006840F0405008605B
:1025F000204670BD10B5FFF7C1FE10BD70B5044692
:102600000026FFF7D2FEA020FFF783FFFFF70EFFA3
:1026100008B1002070BD2546E11704EB1161C1F33C
:102620000720FFF776FFFFF701FF08B10020F1E771
:102630002546E11704EB11610912A4EB0121C8B290
:10264000FFF767FFFFF7F2FE08B10020E2E7FFF7B0
:10265000ACFEA120FFF75DFFFFF7E8FE08B1002008
:10266000D8E70020FFF789FF0646FFF7BEFE304699
:10267000D0E770B504460E46FFF797FEA020FFF79F
:1026800048FFFFF7D3FE00B170BD2012FFF741FFF6
:10269000FFF7CCFE00B1F7E72546E11704EB116127
:1026A0000912A4EB0121C8B2FFF733FFFFF7BEFE0A
:1026B00000B1E9E73046FFF72CFFFFF7B7FE00B1A6
:1026C000E2E7FFF792FE0A20FFF752FB00BFDBE7CD
:1026D0002DE9F04105460E461746002409E0E200C8
:1026E00026FA02F2D1B22A1990B2FFF7C2FF601C9B
:1026F000C4B2BC42F3DBBDE8F0812DE9F0410746EE
:102700000C460026002509E036023919491B491EEE
:1027100088B2FFF773FF0644681CC5B2A542F3DB1D
:102720003046BDE8F0810000000C01409C81214250
:102730000080214210B5FD48007820B30D21FB48F0
:102740000278401C81540A22401E0078401CF74940
:10275000491C0A540D22481E0078801C0A540A2283
:10276000481E0078C01C0A54481E0078001DC1B2E3
:10277000EE48401CEE4A126890470020EB49087072
:102780000820EC49087010BD10B505223221EAA0DE
:1027900000F05AF80120E749087010BD10B54FF459
:1027A0000041E648FDF747FF0A20FFF7E1FA4FF442
:1027B0000041E248FDF73DFF10BD10B5FFF7EEFF09
:1027C0000A20FFF70DFBFFF7DFFF10BD10B5DC4A55
:1027D000DC49DDA001F006FCD94890F8680080B91A
:1027E000D74A40F2BF11DDA001F0FCFB0820FFF743
:1027F00092FBAFF2390241F270710E20FFF77FFBBE
:1028000010BDCF4AE0A1E24801F0F8FBE04801F03A
:1028100031FDC4B22146DE48C54A12689047C84817
:10282000AFF25702416E0520FFF769FBC44890F8EC
:102830006800FF2806D0C24890F86800401EC049D2
:1028400081F8680000BFDBE72DE9F04104460D4642
:1028500016462246CF49D0A001F0C4FB2146B84815
:1028600001F0E4FCB648456680F868600246C6A1FF
:10287000C74801F0C3FBC64801F0FCFCC7B23946AB
:10288000C348AB4A12689047AD48AFF2BF02416EF1
:102890000520FFF734FBBDE8F08110B5C2A1BC48AC
:1028A00001F0ACFB05224FF4FA61B948FFF7CCFF09
:1028B0000620A049087010BD10B5BEA1B44801F0B3
:1028C0009DFB05224FF4FA61B148FFF7BDFF0720D9
:1028D0009849087010BD10B5BA480368BA48BBA142
:1028E0000268AB4801F08AFB05224FF4FA61A84860
:1028F000FFF7AAFF05208F49087010BD10B5BA4830
:102900000368BA48BAA10268A14801F077FB052222
:102910004FF47A719E48FFF797FF042085490870AD
:1029200010BD10B501223221B6A0FFF78DFF0320A4
:102930008049087010BD10B501223221B4A0FFF704
:1029400083FF02207B49087010BD10B5B2A19048EA
:1029500001F054FB8E4801F08DFCC4B221468C4836
:10296000734A126890470220FFF73AFA10BD10B57B
:102970007048007808282BD16C48007840BB0A20AA
:102980006A490870FF204870A548006801786748C8
:102990008170A348006841786448C170A04800680D
:1029A0008178624801719E480068C1785F48417132
:1029B000002181710221C171FE2101720021417249
:1029C0000921401CFFF747FA58498872FFF7B2FE09
:1029D000AFF2650240F6B8310620FFF790FA10BD5D
:1029E00010B5904990A001F0FDFA0520FFF793FA89
:1029F00000204E49087008204E4908708848006839
:102A000030B1AFF295024FF47A710620FFF777FAF2
:102A100010BD70B500248948007800B970BD874AA0
:102A2000521C874987A001F0DDFA8AA18348401C27
:102A300001F0BEFB0446B4B1814988A001F0D2FA8E
:102A40000520FFF768FA8A480078401C884908701A
:102A5000084600780A2800DDB0E10120FFF7C0F940
:102A6000FFF739FFAAE183A17448401C01F0A0FBE5
:102A70000446DCB1724984A001F0B4FA0520FFF7E6
:102A80004AFA7B480078401C79490870084600786B
:102A90000A2800DD92E10120FFF7A2F9FFF71BFFF2
:102AA00073480078401C7249087087E1214800781B
:102AB00008280FD16148007A0930C5B22A4660491A
:102AC00077A001F08FFA29465C48401C794A1268C9
:102AD000904773E117480078062810D176A157482F
:102AE000401C01F065FB044644B1554973A001F058
:102AF00079FA0520FFF70FFAFFF772FF5EE10D4844
:102B00000078012810D172A14C48401C01F050FB04
:102B1000044644B14A496FA001F064FA0520FFF76A
:102B2000FAF9FFF708FF49E1DEE000005C0200204F
:102B300040000020280000204154000000180140FF
:102B4000F0010020444D00085B25735D2573206F64
:102B500076657274696D650D0A00000046494C4542
:102B60003A2048414C5C574946495C776966692E72
:102B7000632C204C494E453A2025643A2573204564
:102B800052524F520D0A000025730D0A000000003A
:102B90008C010020614D00085B25735D636D643D11
:102BA00025730D0A0000000041542B434950534542
:102BB0004E44000041542B4349504D4F44453D3154
:102BC00000000000380000203400002041542B4356
:102BD000495053544152543D22544350222C2225F3
:102BE00073222C2573000000300000202C000020F0
:102BF00041542B43574A41503D222573222C222514
:102C00007322000041542B43574D4F44453D310042
:102C1000415445300000000041542B5253540000F1
:102C20003C000020264D00085B25735D574946494E
:102C300020696E697420656E640D0A00F00300203F
:102C4000334D00085B25735D726563203D2025735D
:102C50000D0A0000434C4F53454400005B25735D53
:102C600072656320434C4F5345440D0A0000000039
:102C7000290000206C696E6B206973206E6F7420D0
:102C800076616C69640000005B25735D726563208A
:102C90006C696E6B206572726F720D0A0000000025
:102CA0005B25735D7374726C656E203D2025640D29
:102CB0000A000000440000203E0000005B25735D18
:102CC000504153535448524F5547480D0A00000095
:102CD0004F4B00005B25735D574946495F434D44A8
:102CE0005F41540D0A00000093480078022810D17B
:102CF000AFF22401914801F05BFA044644B19049D7
:102D000090A001F06FF90520FFF705F9FFF709FE24
:102D100054E089480078032810D1AFF24C0187486D
:102D200001F046FA044644B185498BA001F05AF9F6
:102D30000520FFF7F0F8FFF7BFFD3FE07E48007881
:102D4000052810D1AFF278017C4801F031FA044631
:102D500044B17B4986A001F045F90520FFF7DBF877
:102D6000FFF79BFD2AE074480078072810D1AFF2E6
:102D7000A001724801F01CFA044644B1704982A0D7
:102D800001F030F90520FFF7C6F8FFF7B7FD15E0B1
:102D900069480078042810D1AFF2CC01674801F0EF
:102DA00007FA044644B166497DA001F01BF90520ED
:102DB000FFF7B1F8FFF78FFD00E000BF7E48007815
:102DC0000A2814DD7C4802785D497CA001F00AF9EC
:102DD000002059490870784908700520FFF79BF8D2
:102DE000AFF2296241F270710E20FFF788F80020DF
:102DF0005249491E08706421504801F09FFA00BFF3
:102E00000CE610B54C480078082826D172480078A6
:102E100018BB00241FE0652060437049085CC0B106
:102E200065206043085C6C490870652060436B4B0B
:102E30001A5C652060431844411C6748401C01F03F
:102E400038FAFFF777FC002165206043634A11548C
:102E500010BD601CC4B2032CDDDB00BFF8E72DE918
:102E6000F84F04460D4616461F46DDE90B9ADDF87D
:102E700028805B495BA001F0B5F801214020FDF7F7
:102E8000E7FD4FF40040ADF8000010208DF803007E
:102E900001208DF8020069465848FDF71DFB4FF4EC
:102EA00000415648FDF7C5FB55480460554805608C
:102EB00055480660554807605548C0F80080554899
:102EC000C0F800905448C0F800A0FFF73EFDFFF79F
:102ED0005BFCBDE8F88F70B504460D461748401EF0
:102EE00004706421401C01F029FA22462946134847
:102EF00001F0DFF970BD70B506460D46002413E001
:102F0000652060433549085C60B9652060430D5415
:102F100065216143314A1144481C2A46314601F07B
:102F2000C8F970BD601CC4B2032CE9DB3B493CA06E
:102F300001F058F800BFF4E728000020F10300205A
:102F4000334D00085B25735D574946495F434D4447
:102F50005F4154450D0A00005B25735D57494649A2
:102F60005F434D445F43574D4F44450D0A000000F9
:102F70005B25735D574946495F434D445F43495064
:102F800053544152540D0A005B25735D574946491D
:102F90005F434D445F4349504D4F44450D0A000087
:102FA0005B25735D574946495F434D445F43574A2C
:102FB00041500D0A00000000290000205B25735DD0
:102FC000576966695F4572726F725F4E756D3A2020
:102FD00025640D0A000000005C020020C1020020F0
:102FE0006E4D00085B25735D5749464920696E693F
:102FF000742073746172740D0A000000001801409F
:103000002C00002030000020340000203800002078
:103010003C00002040000020440000207C4D0008BF
:103020005B25735D5749464920627573790D0A0027
:1030300010B50C48008800F4004090B10020094908
:103040000988C1F30E01084A505406490878114610
:10305000FFF741FF0020034908804021024801F0AA
:103060006DF910BD240000204C01002010B59C48D3
:10307000007800B910BD9A48C2884E2199A000F08E
:10308000B1FF0720964981F8D20000F01DFA002018
:1030900093490870A349087000BFEBE710B590484A
:1030A000007800B910BD8E4890F8D30001281CD1DB
:1030B0008B48D0F8DC00A0B18949D1F8DC0080470A
:1030C0008748D0F8D80040B18548AFF25F02D0F809
:1030D000D8101020FEF713FF03E00020804908708D
:1030E000E0E700207E4981F8D3007D4890F8D400C5
:1030F00001280CD17A48D0F8E00018B17849D1F80D
:10310000E000804700207649C1F8E000087000BF69
:10311000C8E770B504460E467148007838B193216F
:1031200081A000F05FFF204600F030FA70BD7D48BE
:10313000007860B120787B490978884207D19C21CA
:1031400086A000F04FFF204600F039FAEEE701209C
:10315000634908702078487008468E490968C0F8AD
:103160000210A079617900EB01205D49C880002040
:10317000087264215A48093001F0E0F800205849EB
:1031800081F8D20081F8D20081F8D30081F8D40010
:10319000C1F8D800C1F8DC00C1F8E000402E0EDD17
:1031A0003246B5217CA000F01DFF04204C4981F877
:1031B000D20000F089F9002049490870B6E70422DE
:1031C000611C4748801C01F005F868B1C32182A04A
:1031D00000F008FF0520424981F8D20000F074F9A0
:1031E00000203F490870A1E7E07932280EDDE2793E
:1031F000D12187A000F0F6FE0520394981F8D200E0
:1032000000F062F90020364908708FE7701EC1B2E5
:103210002046FEF720FE711E615C88420DD0DF2142
:103220008AA000F0DFFE02202D4981F8D20000F0D4
:103230004BF900202A49087078E7E079284981F89D
:103240006D00084690F86D0038B1084690F86D2082
:1032500004F108016E3001F02CF800253CE08948AB
:1032600000EB051000884FF6FF7188420FD11C4813
:10327000C288F52184A000F0B5FE0620184981F827
:10328000D20000F021F90020154908704EE77D4872
:1032900000EB051000881249C98888421AD1794884
:1032A00000EB051040680E49C1F8DC00754800EBE2
:1032B00005108068C1F8E000012081F8D300714852
:1032C00000EB0510C068C1F8D800084640781549E1
:1032D000087002E0681CC5B2C1E700BF00BF25E767
:1032E0005804002046494C453A2050524F544F4311
:1032F0004F4C5C70726F746F636F6C2E632C204C3C
:10330000494E453A2025643A50726F746F636F6C72
:103310002030782578206F76657274696D650D0AA6
:10332000000000004800002046494C453A20505219
:103330004F544F434F4C5C70726F746F636F6C2EC1
:10334000632C204C494E453A2025643A524355207F
:103350006275736965730D0A0000000046494C45AB
:103360003A2050524F544F434F4C5C70726F746F01
:10337000636F6C2E632C204C494E453A2025643AED
:1033800052435520526570656174204672616D65C7
:103390000D0A00004C00002046494C453A2050528E
:1033A0004F544F434F4C5C70726F746F636F6C2E51
:1033B000632C204C494E453A2025643A50726F7474
:1033C0006F636F6C206C656E3D2564206F7665724F
:1033D0006C656E0D0A00000046494C453A2050527B
:1033E0004F544F434F4C5C70726F746F636F6C2E11
:1033F000632C204C494E453A2025643A4465766951
:103400006365204944206572726F720D0A000000E6
:1034100046494C453A2050524F544F434F4C5C70F4
:10342000726F746F636F6C2E632C204C494E453A5B
:103430002025643A6461746120627566206C656E53
:103440003D2564206F7665720D0A000046494C45A3
:103450003A2050524F544F434F4C5C70726F746F10
:10346000636F6C2E632C204C494E453A2025643AFC
:1034700073756D20636865636B206572726F720D82
:103480000A000000904D000846494C453A20505231
:103490004F544F434F4C5C70726F746F636F6C2E60
:1034A000632C204C494E453A2025643A436F6D6D9C
:1034B000616420636F6465203D2030782578206545
:1034C00072726F720D0A000010B588484078884902
:1034D0000870084687490968C0F801108348C08809
:1034E0000012834948718148807988717F4890F83B
:1034F000D200C8717D48007A08727C48007A38B1E1
:103500007A48027A00F109017948093000F0D1FEC9
:103510007648007A0930C1B27548FEF79CFC7349C1
:10352000097A0931724A50547048007A0A30C1B29F
:103530001046FFF7E0FC10BD70B505460E46144678
:10354000FF206B49087008466A490968C0F80110F5
:103550002812674948718D71FE20C87108460472AF
:1035600024B122463146093000F0A3FE04F10900DF
:10357000C1B25F48FEF76FFC04F109015C4A505488
:10358000481CC1B21046FFF7B6FC70BD10B504462A
:10359000574821680160A1888180A1798171032049
:1035A0005349C8710020087209215148FEF753FCA5
:1035B0004F4948720A214E48FFF79DFC10BD10B5D7
:1035C00004464B4821680160A1888180A1798171FE
:1035D0000A204749C8710020087209214448FEF7B3
:1035E0003AFC434948720A214148FFF784FC10BD68
:1035F00010B5414941A000F0F5FCFF203B4981F89E
:10360000D200FFF761FF394890F86D2000F16E019C
:10361000384800F04EFE374800F0E6FA0022114626
:10362000042000F030FC10BD10B5394939A000F07D
:10363000D9FCFF202D4981F8D200FFF745FF3B4A16
:103640004FF47A710F20FEF75AFC10BD10B53849BF
:1036500038A000F0C7FCFF20244981F8D2000420E4
:103660000872084623490968C0F80910FFF72CFFC3
:1036700010BD10B5354936A000F0B4FC10BD10B532
:10368000384939A000F0AEFC10BD70B53C493DA0F2
:1036900000F0A8FC154890F86E40224600F16F013A
:1036A0003F4800F006FE00203D490855084600F05E
:1036B000D6FA0E486E30611C455CA21C81182A4661
:1036C000384800F0F6FD002036494855084600F01D
:1036D000DDFAFF20054981F8D200FFF7F5FE134A15
:1036E0004FF4FA710F20FEF70AFC70BD5804002059
:1036F0003C0500204C000020A04D00085B25735DB8
:10370000536574204465766963652049440D0A0059
:10371000B14D00085B25735D53797374656D20525C
:103720006573746172740D0A00000000A937000807
:10373000C44D00085B25735D526561642044657665
:103740006963652049440D0A00000000D64D000859
:103750005B25735D536574205A6967626565204314
:10376000480D0A00ED4D00085B25735D52656164EC
:10377000205A69676265652043480D0A0000000011
:10378000054E00085B25735D5365742053657276A2
:10379000657220495020706F72740D0A000000009D
:1037A000DC050020F0050020012080F3138800BF15
:1037B000FEF7F4FF0120FEF713FB00BF634800682B
:1037C00000F4E06062490843001D60490860BFF3EF
:1037D000408F00BF00BFFEE710B55E4800780228AA
:1037E00005DB5D495DA000F0FDFBFFF7DDFF00207C
:1037F0005849087010BD10B540215D48FCF7FFFE28
:10380000E0B95C480068401C5A49086008460068F6
:1038100032280CD9584959A000F0E4FB0022114687
:10382000032000F030FB00205249086010BDAFF2C9
:10383000390205210C20FEF762FB02E000204D4911
:10384000086000BFF2E710B51420FEF791FA40209F
:10385000FCF7C8FDF8B140214548FCF7D0FEB8B9E7
:103860004C494DA000F0BEFB3A48007858B9AFF281
:10387000970264210B20FEF742FBAFF2850205217F
:103880000C20FEF73CFB33480078401C314908709F
:103890004020FCF7B8FD10BD08B500208DF80300EE
:1038A0004FF6FF70ADF8000001208DF80200694668
:1038B0003D48FCF711FE69463C48FCF70DFE6946A1
:1038C0003B48FCF709FE69463A48FCF705FE08BD8F
:1038D0000EB500F008F94FF4A060FCF7A1FC4820F9
:1038E000FEF72CFAFFF7D8FFFEF7C8FAFEF7F8FB51
:1038F000FEF7E2FCFEF71CFDFEF77CFE00F03DFB50
:103900000520FEF76DFA00F0D8F90220FEF768FAFC
:1039100029482A492A4A2B4BCDE9002102902A4AFC
:103920002A492B48FFF79BFA2A492BA000F05AFBA3
:103930000BE0FFF77DFBFFF76CF8FFF7AFFBFFF73E
:1039400060FA00F0CBFAFEF7EBFAF2E70CED00E0DC
:103950000000FA0550000020194E00085B25735D39
:103960002062746E20646220646F776E0D0A00001E
:103970000018014054000020264E00085B25735DAE
:103980002062746E206C6F6E672070726573730DA9
:103990000A000000354E00085B25735D62746E20DE
:1039A000646F776E0D0A000000080140000C0140B2
:1039B0000010014000140140133100086722000884
:1039C0004C000020F0050020DC050020BE05002092
:1039D000A0050020484E00085B25735D7379737461
:1039E000656D2073746172740D0A0000704700BF2A
:1039F000FEE700BFFEE700BFFEE700BFFEE770473F
:103A000070477047704700000CB50020019000908F
:103A10006C48006840F480306A49086000BF69481B
:103A2000006800F4003000900198401C019000985C
:103A300018B90198B0F5A06FF1D16248006800F4A0
:103A4000003010B10120009001E0002000900098AB
:103A5000012843D15C48006840F010005A490860D2
:103A60000846006820F0030008600846006840F03F
:103A70000200086053484068524948600846406860
:103A800048600846406840F48060486008464068E6
:103A900020F47C1048600846406840F4E810486014
:103AA0000846006840F08070086000BF4548006824
:103AB00000F000700028F9D04248406820F0030070
:103AC000404948600846406840F00200486000BF36
:103AD0003C48406800F00C000828F9D10CBD10B536
:103AE000FFF792FF10BD10B53648006840F00100A6
:103AF0003449086008464068344908403149486004
:103B000008460068324908402E49086008460068A7
:103B100020F4802008600846406820F4FE004860D9
:103B20004FF41F008860FFF7DAFF4FF0006029496B
:103B3000086010BD10B5002100200022214B5B68F9
:103B400003F00C0121B1042906D0082928D107E08F
:103B5000214B224C236027E01F4B204C236023E0A5
:103B6000184B5B6803F47010164B5B6803F48032EB
:103B7000022303EB904022B9194B4343174C2360B7
:103B80000DE0104B5B6803F4003323B1144B434347
:103B9000124C236003E0104B4343104C236003E0BE
:103BA0000D4B0E4C236000BF00BF064B5B68C3F398
:103BB00003130C4CE15C094B1B68CB40074C2360A2
:103BC00010BD000000100240002002400000FFF87D
:103BD000FFFFF6FE08ED00E000127A00580000201A
:103BE00000093D005C00002070B50546002405E09A
:103BF000295D601DFEF73DFD601CC4B2042CF7DB9F
:103C000070BD70B50546284600F034FBC6B20024EE
:103C100006E0295D04F11400FEF72BFD601CC4B220
:103C2000B442F6DB04F114000021FEF722FD70BD62
:103C300070B50546284600F01DFBC6B2002406E01C
:103C4000295D04F14600FEF714FD601CC4B2B442C5
:103C5000F6DB04F146000021FEF70BFD70BD70B5E8
:103C60000546284600F006FBC6B2002406E0295DA2
:103C700004F17800FEF7FDFC601CC4B2B442F6DB30
:103C800004F178000021FEF7F4FC70BD70B5054624
:103C9000284600F0EFFAC6B2002406E0295D04F1E0
:103CA000AA00FEF7E6FC601CC4B2B442F6DB04F1E5
:103CB000AA000021FEF7DDFC70BD70B50020FEF704
:103CC0009DFC05462A46554955A000F08BF9AA2DC2
:103CD00043D00020584908700120487000208870A7
:103CE000C870002406E0544A115D601DFEF7C1FC57
:103CF000601CC4B2042CF6DB1E21504800F01EFBF1
:103D00004FA14E4800F092FA4C48FFF77AFF1E216F
:103D10004E4800F013FB4EA14C4800F087FA4B4888
:103D2000FFF786FF1421504800F008FB4FA14E48D2
:103D300000F07CFA4C48FFF792FF4F4800210160E9
:103D4000416001814DA100F071FA4B48FFF79EFFE1
:103D5000AA210020FEF78DFC5FE0002406E0601D34
:103D6000FEF74CFC34490855601CC4B2042CF6DB49
:103D70001E21324800F0E2FA00240BE004F11400A6
:103D8000FEF73CFC2D4908550846005D00B903E0EC
:103D9000601CC4B21E2CF1DB00BF1E212B4800F0BA
:103DA000CDFA00240BE004F14600FEF727FC27497A
:103DB00008550846005D00B903E0601CC4B21E2C23
:103DC000F1DB00BF1421284800F0B8FA00240BE012
:103DD00004F17800FEF712FC234908550846005DFF
:103DE00000B903E0601CC4B2142CF1DB00BF224810
:103DF000002101604160018100240BE004F1AA0070
:103E0000FEF7FCFB1C4908550846005D00B903E0BD
:103E1000601CC4B20A2CF1DB00BF70BD4D4E00081F
:103E20005B25735D455046696C655F496E6974201A
:103E30003D2025780D0A00004C000020A005002040
:103E40004C595A5F4445564943450000BE05002081
:103E50006C797A696D706F7274616E746571756971
:103E6000706D656E74000000DC05002034372E3163
:103E700030362E392E353300F00500203230303008
:103E80003100000070472DE9F04106460F46154607
:103E900000241EE0672060433E49085CB8B9012158
:103EA000672060433B4A11546720604310444670CA
:103EB000672060431146084485703DB16721614326
:103EC0001144C81C2A46394600F0F3F903E0601C8F
:103ED000C4B2032CDEDB00BFBDE8F0813EB5002498
:103EE00047E0672060432B49085C00283FD06720EB
:103EF00060430844407828B1672060430844407814
:103F0000052805D1002167206043224A11543EBD97
:103F1000672060431F4908444078032821D1FEF7F9
:103F20003DFC0520FDF75CFF1BA11D4800F07EF95C
:103F30001CA11F4800F07AF91EA1224800F076F972
:103F400021A1234800F072F922482349234A204B3B
:103F5000CDE9002102901B4A15491148FEF77FFF69
:103F600000BF00BF0021672060430A4A1154601C53
:103F7000C4B2032CB5DB00BFC9E7002006E0002275
:103F800067214143034B5A54411CC8B20328F6DB56
:103F900070470000FA0500204C595A2D4353000089
:103FA000A00500203134373235383336390000006F
:103FB000BE0500203139322E3136382E312E3131C6
:103FC00036000000DC0500203230303031000000C7
:103FD000F005002013310008672200084C00002083
:103FE000704700000FB4044910B503AA029800F00E
:103FF00059FA10BC5DF814FB1C0000200FB41CB56E
:10400000074B06AA7B4469460090059800F01BFA0E
:104010000020694600F02AFA1CBC5DF814FB000081
:10402000650400002DE9F0410E46044600202062A0
:104030002046E168884730B3252805D0D4E901211E
:104040009047206A401CF2E7E16820460027884735
:10405000050018D0A5F14100192802D820354FF4E9
:1040600000673246294620462760FCF79BF840B19E
:10407000012804D0F61D26F007060836D8E7361DBD
:10408000D6E72846DAE7206ABDE8F08170B50C462D
:104090000546012A05D02878800600D5EA69002364
:1040A00002E0012305E05B1C934202D2E05C0028A1
:1040B000F9D1A869E618C01AA861286A18442862CC
:1040C0002846AFF3008004E0D5E9012114F8010B84
:1040D0009047B442F8D32846AFF3008070BD00008B
:1040E0002DE9F0410646002410687529314616A5D1
:1040F00010D0AFF30080002802DA404213A507E099
:1041000031688A0701D512A502E0490704D511A537
:10411000012401E0AFF3008000210A2206F1240708
:1041200009E0B0FBF2FCB0FBF2F302FB1C00303004
:1041300078541846491C0028F3D123462A463046B5
:10414000BDE8F04100F020B9000000002D000000A3
:104150002B0000002000000070B504460D462146EB
:104160001068AFF300802188090502D50F4A7A4410
:1041700002E00E4A7A440E32002104F1240305E0E5
:1041800000F00F060009965D5E54491C0028F7D127
:1041900020780023000704D5702D02D009B1022336
:1041A00011322046BDE8704000F0EEB8E70C000088
:1041B00030B505460B462A4613F8014B12F8010BA1
:1041C00008B1A042F8D01CB1002802D06D1CF1E764
:1041D000284630BD40EA010310B59B070FD1042AE1
:1041E0000DD310C808C9121F9C42F8D020BA19BAC2
:1041F000884201D9012010BD4FF0FF3010BD1AB127
:10420000D30703D0521C07E0002010BD10F8013B7B
:1042100011F8014B1B1B07D110F8013B11F8014BA2
:104220001B1B01D1921EF1D1184610BD40EA0103BB
:10423000024630B59B0710D14FF0013400E008C2B0
:1042400008C91D1B9D4315EAC41FF8D013F0FF01D8
:1042500002F8011B0DD01B0AF8E711F8013B002BF7
:1042600002F8013B05D011F8013B002B02F8013B9D
:10427000F3D130BD10B5431C02E010F8011B71B141
:104280008107FAD14FF0013202C88C1A8C4314EA2C
:10429000C211F9D0C01A0A0603D0C01E10BDC01A40
:1042A00010BD0A0401D0801E10BD0902FCD0401EC2
:1042B00010BD032A40F2308010F0030C00F015808E
:1042C00011F8013BBCF1020F624498BF11F801CB19
:1042D00000F8013B38BF11F8013BA2F1040298BF7E
:1042E00000F801CB38BF00F8013B11F0030300F0E8
:1042F000EB80083AC0F0088051F8043B083A51F8C6
:1043000004CBA0E80810F5E7121D5CBF51F8043B90
:1043100040F8043BAFF30080D20724BF11F8013B03
:1043200011F801CB48BF11F8012B24BF00F8013B65
:1043300000F801CB48BF00F8012B70474FF0000296
:104340000429C0F0128010F0030C00F0F180CCF1D1
:10435000040CBCF1020F18BF00F8012BA8BF20F815
:10436000022BA1EB0C0100F0E3B85FEAC17C24BF93
:1043700000F8012B00F8012B48BF00F8012B704713
:1043800070477047704770472DE9F0470D469946D2
:104390009246044600F124080168880604D5E069C5
:1043A00021F01001216000E00120A84201DD471B3F
:1043B00000E00027A1697A1902EB0900081AA06140
:1043C0002078C00602D42046AFF30080002608E023
:1043D000D4E901211AF806009047206A401C761C97
:1043E00020624E45F4DB2078C0060AD52046AFF3A4
:1043F000008006E0D4E9012130209047206A401C6B
:104400002062381EA7F10107F4DC07E0D4E901219E
:1044100018F805009047206A401C2062281EA5F16C
:104420000105F3DC2046AFF300802078000602D5BA
:104430000220BDE8F0870120FBE7000001694A1C6B
:1044400002610878704700B58FB0CDE901310021D5
:10445000059105497944CDE9031011466846FFF7F7
:10446000E1FD0FB000BD0000E5FFFFFF0A6802F8A4
:10447000010B0A60704710B5436913B1AFF30080B8
:1044800001E0FFF703FE012010BD127800F12401C6
:104490000A7000224A700122EDE711684FF0FF32E6
:1044A000E9E70000074B70B50D467B44FFF7CBFFF3
:1044B0000446284600F061F810B14FF0FF3070BD9F
:1044C000204670BDC5DAFFFF10B5203AC0F00B8062
:1044D000B1E81850203AA0E81850B1E81850A0E808
:1044E0001850BFF4F5AF5FEA027C24BFB1E8185062
:1044F000A0E8185044BF18C918C0BDE810405FEAD2
:10450000827C24BF51F8043B40F8043B08BF70474D
:10451000D20728BF31F8023B48BF11F8012B28BF52
:1045200020F8023B48BF00F8012B70474FF0000213
:1045300000B5134694469646203922BFA0E80C5099
:10454000A0E80C50B1F12001BFF4F7AF090728BF74
:10455000A0E80C5048BF0CC05DF804EB890028BFF0
:1045600040F8042B08BF704748BF20F8022B11F019
:10457000804F18BF00F8012B7047007B00F08000CF
:104580007047754600F028F8AE4605006946534668
:1045900020F00700854618B020B5FBF72FFEBDE8D8
:1045A00020404FF000064FF000074FF000084FF09A
:1045B000000B21F00701AC46ACE8C009ACE8C0092B
:1045C000ACE8C009ACE8C0098D4670470446AFF3BB
:1045D00000802046FBF7FEFD0048704730070020B2
:1045E00090EA010F48BF81F0004100F12E82421A8B
:1045F0003CBF801A89184FEAD0524FF07F4C1CEA1A
:10460000410FA2EBD15318BF9CEA026F00F03B8030
:104610004FF0004C4CEA00204CEA012121FA03FC47
:1046200010EB0C0C1ED202F1FF325FEA1C2040EBB3
:10463000C25038BF70471CF07F0F4FEA400C18BFC4
:10464000BCF17F4F38BF7047C3F12003994008BFCA
:1046500020F00100BCF17F4F38BF7047A0F1C0408F
:1046600000F0DDB94FEA3C00000A40EBC25028BF21
:104670001CF0FF0F4FEA400CE6D018BFBCF17F4F93
:1046800038BF7047EAE79CEA026F05D010EA5C0F7A
:1046900008BF00F00040704710B500F07AF900BF85
:1046A00064FBBE3E4FF47F0C1CEAD0121EBF1CEA16
:1046B000D11392EA0C0F93EA0C0F00F0858090EA78
:1046C000010F48BF42F4807240F4000C41F4000036
:1046D0002CF07F4120F07F4000B58142A2EB030225
:1046E0000FF2081CACEB504EC0F100009EF800E049
:1046F0004FEA4E0E00FB0EFC38BF49004FEA2C1C5F
:1047000002F5FA020CFB0EF34FEACE1E4FEA112C13
:104710004FEAC1210EEB635E42EB22420EFB0CFC22
:104720004FEA1C5300FB03114FEA112C4FEA0131F1
:104730000EFB0CFC4FEADC4C00FB0C11C14228BF05
:1047400009184CEB03335DF804EB10EB410143EB2C
:10475000C250B2F57C0F38BF704729D512F0F00F68
:104760001CBF00F1C04000F0004070470081828310
:104770008485868788898B8C8D8E8F919293959670
:1047800097999A9C9D9FA0A2A3A5A7A8AAACAEB0FA
:10479000B2B3B5B7B9BCBEC0C2C5C7C9CCCED1D4FF
:1047A000D7D9DCDFE2E6E9ECF0F3F7FAFE0000002F
:1047B0004FEA400C0CF1807CBCF17E4F28BF704763
:1047C000B0F1C04000F02BB990EA010F0CEAD11310
:1047D00048BF42F48072624538BF634507D213F484
:1047E0007F0F16D080EA010000F00040704710B53E
:1047F00000F0CFF8097EFC3E00F005B880EA010029
:1048000000F00040704780EA010000F0004000F036
:1048100006B912F47F0F04BF0248704780EA010016
:1048200000F0FDB80000C07FC10DD1F19E0206DB93
:104830004FEA002343F0004323FA02F0704700429E
:1048400007D54FEA4001B1F1FE4F02D24FF0000010
:10485000704710B500F09DF8499224800020704701
:104860006FEA200070470000B0FA80F310FA03F2FC
:10487000C3F19D030AD0D90501EB1220530638BFBE
:10488000704700F1010008BF20F0010070470000F0
:104890004FF47F0C1CEAD0121EBF1CEAD11392EA1F
:1048A0000C0F93EA0C0F00F0478090EA010F48BF0D
:1048B00042F480724FF0004C4CEA00204CEA012197
:1048C00002EB0302A0FB0113A2F50002002918BFAE
:1048D00043F001035B0028BF4FEA330342EB22425F
:1048E0005FEA132C4CEBC2502EBFBCEB436FB2F50A
:1048F0007C0F70474FEA036CBCF1004F08BF20F0FB
:104900000100B2F57C0F38BF70470BD582F0FF0273
:1049100012F5803FC8BF704700F1C040D8BF00F01B
:104920000040704700F5000C5FEA4C0C48BF704730
:10493000B0F1C04000F073B890EA010F0CEAD11357
:1049400048BF42F48072624538BF634504D280EAB2
:10495000010000F00040704710B500F01AF800BFE9
:104960008900013E00F007B800F009B85FEA410C89
:104970005FEA1C6C08D080EA010000F050B85FEAE2
:10498000400C5FEA1C6CF6D14FF00040A0F58000AF
:1049900070470EF1020E2EF0030E5EF8044B244217
:1049A00004D44FEA4102B2F17F4F11D84FEA4003DD
:1049B000B3F17F4F0CD80ED14FEAD07CB2F17F4FCC
:1049C0000CEB4C0C0CF1020C08BF4CEBD17C04E05E
:1049D0004FF0080C01E04FEAD17C0CEB4C0324FAB9
:1049E00003F404F00704B4F1040C06D20EEB840CBB
:1049F000BDE810404CF0010C6047DFE80CF0070800
:104A000002024FF00040A0F5800010BD08464200B1
:104A100018BFD2F1807288BF00F0004010BDFF21A6
:104A200041EAD050C005704780F0004090EA010F85
:104A30007FF5DDAD81F0004100F007B890EA010F8D
:104A400048BF81F000413FF5D2AD421A04D882F050
:104A50000042A0EB020011444FEAD0524FF07F4CCD
:104A60001CEA410FA2EBD15318BF9CEA026F4AD057
:104A70004FF0004C4CEA00204CEA012121FA03FCE3
:104A8000B0EB0C0C0FD412F0FE0F36D05FEA4C00E6
:104A90001DD5001240EBC25038BF70471CF03F0FCD
:104AA00018BF70470BE0A2F101025FEA1C2040EB47
:104AB000C25038BF70471CF07F0F18BF7047C3F15A
:104AC0002003994014BF401E20F001007047800869
:104AD0004FEA122308BF7047B0FA80FCA2EB0C0229
:104AE000CCF1280C60FA0CF093EA122F04BF00EB13
:104AF000C25070474FEAC3707047130A5FEADC1078
:104B000008BF7047F6E79CEA026F04D010EA5C0F1A
:104B100008BF0020704710B5FFF73BFF40DFF63EAF
:104B200081F00040704700C1814001C0804101C058
:104B3000804100C1814001C0804100C1814000C16D
:104B4000814001C0804101C0804100C1814000C15D
:104B5000814001C0804100C1814001C0804101C04D
:104B6000804100C1814001C0804100C1814000C13D
:104B7000814001C0804100C1814001C0804101C02D
:104B8000804100C1814000C1814001C0804101C01D
:104B9000804100C1814001C0804100C1814000C10D
:104BA000814001C0804101C0804100C1814000C1FD
:104BB000814001C0804100C1814001C0804101C0ED
:104BC000804100C1814000C1814001C0804101C0DD
:104BD000804100C1814001C0804100C1814000C1CD
:104BE000814001C0804100C1814001C0804101C0BD
:104BF000804100C1814001C0804100C1814000C1AD
:104C0000814001C0804101C0804100C1814000C19C
:104C1000814001C0804100C1814001C0804101C08C
:104C2000804100C1814000C0C101C30302C2C60669
:104C300007C705C5C404CC0C0DCD0FCFCE0E0ACAD4
:104C4000CB0BC90908C8D81819D91BDBDA1A1EDE24
:104C5000DF1FDD1D1CDC14D4D515D71716D6D212D4
:104C600013D311D1D010F03031F133F3F23236F6E4
:104C7000F737F53534F43CFCFD3DFF3F3EFEFA3A94
:104C80003BFB39F9F83828E8E929EB2B2AEAEE2E24
:104C90002FEF2DEDEC2CE42425E527E7E62622E294
:104CA000E323E12120E0A06061A163A3A26266A6E4
:104CB000A767A56564A46CACAD6DAF6F6EAEAA6A54
:104CC0006BAB69A9A86878B8B979BB7B7ABABE7EA4
:104CD0007FBF7DBDBC7CB47475B577B7B67672B254
:104CE000B373B17170B050909151935352929656E4
:104CF0005797559594549C5C5D9D5F9F9E5E5A9A14
:104D00009B5B99595898884849894B8B8A4A4E8EA3
:104D10008F4F8D4D4C8C4484854587474686824213
:104D2000438341818040576966695F436D645F4595
:104D30006E640048414C5F576966695F50726F63EB
:104D400065737300576966695F576169745F52657F
:104D5000635F54696D65725F43616C6C4261636B44
:104D600000576966695F53656E64434D440048416E
:104D70004C5F576966695F496E69740048414C5FD2
:104D8000576966695F53656E644461746100000031
:104D9000FFFF000000000000000000000000000015
:104DA0005352505F5365745F446576696365494447
:104DB000005352505F53797374656D5F526573741D
:104DC000617274005352505F526561645F4465764E
:104DD0006963654944005352505F5365745F5A6973
:104DE000676265655F4368616E6E656C0053525023
:104DF0005F526561645F5A69676265655F436861B8
:104E00006E6E656C005352505F5365745F536572EC
:104E10007665725F496E666F004B65795F446F77A8
:104E20006E5F456E64004B65795F4C6F6E675F50D7
:104E3000726573730045585449395F355F49525163
:104E400048616E646C6572006D61696E0045504624
:104E5000696C655F496E69740030313233343536C0
:104E600037383941424344454640305800303132AA
:104E7000333435363738396162636465664030787B
:104E800000000000A44E0008000000206C0000009C
:104E90006C010008104F00086C000020240D000079
:104EA000880100080000000001020304010203045D
:104EB00006070809020406080000000000000000C0
:104EC00000000000000000000000000000000000E2
:104ED00000000000000000000000000000000000D2
:104EE00000000000000000000000000000000000C2
:104EF00000000000000000000000000000A24A04C2
:104F00000000000000000000010203040607080979
:0400000508000131BD
:00000001FF
